:100000000C9418040C9435040C9435040C943504A9
:100010000C9435040C9435040C9435040C9435047C
:100020000C9435040C9435040C9419140C94D513C9
:100030000C94951D0C9435040C9435040C943504E3
:100040000C9435040C9435040C9435040C9435044C
:100050000C9435040C9400150C9435040C94350460
:100060000C9435040C9435040C9435040C9435042C
:100070000C9435040C9435040C9435040C9435041C
:100080000C9435040C9435040C9435040C9435040C
:100090000C9435040C9435040C9435040C943504FC
:1000A0000C9435040C9435040C94350414001A0097
:1000B00008000400160007001D002C00190000DADB
:1000C0000281FFD9F1DB20A4A62EAF00A0C0D3008F
:1000D00000A1C8D30000AED580A81F408D14200019
:1000E000643214643214783C1E1E140A05000101A7
:1000F00001010101010101020202020202020202E7
:1001000003030303030303030404040404040405B6
:10011000050505050606060606070707070708087A
:100120000808090909090A0A0A0B0B0B0C0C0C0D2B
:100130000D0D0E0E0E0F0F0F1010111111121213C4
:10014000131414151516161717181819191A1A1B3F
:100150001B1C1D1D1E1E1F2020212222232424259E
:100160002626272829292A2B2C2D2D2E2F303132D7
:1001700032333435363738393A3B3C3D3E3F4041E7
:1001800042434445464748494A4C4D4E4F505153CF
:1001900054555658595A5B5D5E5F61626465666886
:1001A000696B6C6D6F7072737577787A7B7D7E800A
:1001B00082838587888A8C8E8F91939596989A9C56
:1001C0009EA0A2A3A5A7A9ABADAFB1B3B5B7BABC6A
:1001D000BEC0C2C4C6C9CBCDCFD1D4D6D8DBDDDF3B
:1001E000E2E4E7E9EBEEF0F3F5F8FAFDFFFFAA7FB2
:1001F00055402223252628292A2C2D2F303233350D
:1002000036383A3B3D3E4042434547494A4C4E50C2
:1002100051535557595A5C5E6062646668696B6DEC
:100220006F71737577797B7D7F81838587898A8CF0
:100230008E90929496989A9C9E9FA1A3A5A7A8AAF7
:10024000ACAEAFB1B3B4B6B8B9BBBCBEBFC1C2C32C
:10025000C5C6C7C9CACBCCCDCED0D1D2D2D3D4D5C6
:10026000D6D7D7D8D9D9DADADBDBDBDCDCDCDCDCEF
:10027000DDDDDDDDDCDCDCDCDCDBDBDBDADAD9D9C7
:10028000D8D7D7D6D5D4D3D2D2D1D0CECDCCCBCA55
:10029000C9C7C6C5C3C2C1BFBEBCBBB9B8B6B4B37B
:1002A000B1AFAEACAAA8A7A5A3A19F9E9C9A989611
:1002B0009492908E8C8A89878583817F7D7B7977E4
:1002C0007573716F6D6B6968666462605E5C5A59C4
:1002D00057555351504E4C4A4947454342403E3D85
:1002E0003B3A3836353332302F2D2C2A2928262513
:1002F000232200AF00AE000000000000000000005C
:1003000000000000000000000000000000000000ED
:1003100000000000000000000000000000000000DD
:100320000000000000000080C0C040602030301895
:100330001C0E030103071C3830606060C0C0808061
:10034000800000000000000000000000000000002D
:10035000000000000000000000000000000000009D
:10036000000000000000000000000000000000008D
:10037000000000000000000000000000000000007D
:10038000000000000000000000000000000000006D
:10039000000000000000C0E0301818081898307005
:1003A000F0B0180C06070301010000000000000077
:1003B000000000000000000000000000000001013B
:1003C0000103030306060C0C181830606060C0605F
:1003D00060303030F8F00000000000000000000045
:1003E000000000000000000000000000000000000D
:1003F00000000000000001010101020202020404E9
:1004000004040808080818101010102020202040AC
:10041000404040C08080FFFFC080808E060000000A
:100420000101000000000000000E1E1E0E0010382A
:1004300070707070E0E0C0000000000000000080FC
:10044000800000000000000000000000000000002C
:10045000000080F83F0700000000000000000000DE
:10046000000000000000000000000000000000008C
:10047000000000000000000000000000000000007C
:10048000000000000000000000000000000000006C
:10049000000000000000000000010101010303034F
:1004A00003060606060C0C0C1C18181838303030E1
:1004B0003060606060E0C0C0C0808080800087C71E
:1004C000C700000000000000000000000000000065
:1004D0000000070F3CF0C00000000000000000001A
:1004E000000000000000000000000000000000000C
:1004F00000000000000000000000000000000000FC
:1005000000000000000000000000000000000000EB
:1005100000000000000000000000000000000000DB
:100520000000000000008080C040602020301018D3
:100530000E070301070E1C3020606040C0C08080A1
:1005400000000000000000000000000000000000AB
:10055000000000000000000000000000000000009B
:10056000000000000000000000000000000000008B
:10057000000000000000000000000000000000007B
:10058000000000000000000000000000000000006B
:1005900000000000000000000000000080C060704B
:1005A00030180C06060301010000000000000000E6
:1005B0000000000000000000000000000000010139
:1005C0000303030606060C081830306060C0606044
:1005D00020303018F800000000000000000000008B
:1005E000000000000000000000000000000000000B
:1005F00000000000000001010101020202020404E7
:1006000004040808080818101010102020202040AA
:10061000404040C08080C0E0381C0603010000005C
:100620000000000000000000000E1F0E0400383023
:10063000703070E0E0C040000000000000008080EA
:100640000000C0E06060706060E0C000000000007A
:100650000000E0FC0F0000000000000000000000AF
:10066000000000000000000000000000000000008A
:10067000000000000000000000000000000000007A
:10068000000000000000000000000000000000006A
:1006900060603090001F31606060606060203030CA
:1006A000101818080C0C0C0C1818181838303030AA
:1006B0003060606060C0C0C0C08080808003070779
:1006C00000FFFF00080138380200010306000000A7
:1006D0000000071C78E0800000000000000000001F
:1006E000000000000000000000000000000000000A
:1006F00000000000000005010980A1018503190127
:100700002AB700150126B700950175108100C005B4
:100710000C0901A101850419012AA002150126A0D6
:1007200002950175108100C005010906A101850629
:10073000050719E029E715002501950875018102D3
:100740000507190029EF1500250195F075018102B3
:100750000508190129059505750191029501750393
:100760009101C005010906A101050719E029E71556
:100770000025019508750181029501750881010523
:1007800007190029FF150026FF009506750881004E
:100790000508190129051500250195057501910226
:1007A000950175039101C009023B00020100A0FA06
:1007B00009040000010301010009211101000122C7
:1007C000440007058103080001090401000103003A
:1007D0000000092111010001226D0007058203209C
:1007E0000001120100020000000853530100010043
:1007F0000102000118033300780033006D0061002E
:10080000630072006F0070006100640000001C0350
:10081000520061007200650050006F0074006100BA
:1008200074006F0038004400450000000403090410
:1008300011241FBECFEFDAE0DEBFCDBF11E0A0E094
:10084000B1E0E6EDF8E402C005900D92A839B107D9
:10085000D9F724E0A8E9B1E001C01D92A13DB2079B
:10086000E1F70E94BC1D0C941F240C940000CF9350
:10087000DF934091CF045091D0044F5C52409A01D5
:100880003E5F21303240C0F020E032E0241B350BC7
:100890006091CD027091CE02FC01CA01240F351F78
:1008A000C1E0D0E08217930750F07093CE026093BE
:1008B000CD02DF91CF91089520E032E0E9CF44915D
:1008C000DC01A153BD4F5C91451781F04C93AC0105
:1008D000A5E056954795AA95E1F7DE0102C0AA0F5B
:1008E000BB1F4A95E2F7AD016A2B752B0196319635
:1008F000D9CF482F2091C9029091900257E0291337
:1009000002C080E0089530E0529FF001539FF00D47
:100910001124EF56FD4F8181681306C08081481372
:1009200003C085818111EECF2F5F3F4F2770E7CF46
:10093000E8EDF0E080818E7F80831092E2001092DB
:10094000DA001092E100A0EEB0E08C9181608C930F
:1009500080818F77808319BCA7EDB0E08C918E7F6A
:100960008C9380818F7E808310927B0208952091EA
:10097000E4003091E50095E6A9012091EC00822F7A
:10098000817020FF06C08091E80080FF06C080E0F3
:1009900008952091E80022FD1AC0809186028823E4
:1009A00089F0853089F08091EB0085FD0FC02091A2
:1009B000E4003091E50042175307F9F29150E1F657
:1009C00084E0089582E0089583E0089581E0089529
:1009D0008091880287FF13C08091E80082FF06C0E3
:1009E0008091E8008B778093E80004C080918602B4
:1009F0008111F2CF0895809186028823D9F38091E6
:100A0000E80080FFF8CF8091E8008E77ECCF982F38
:100A10009093E900242F762F50E0891731F07091E0
:100A2000EC002091ED005091F00021FD07C09F5F88
:100A3000973071F78093E90081E008953091EB00E1
:100A40003E7F3093EB003091ED003D7F3093ED0021
:100A50003091EB0031603093EB007093EC00209309
:100A6000ED005093F0002091EE0027FDE0CF80E0F4
:100A70000895B0E0A0E0EFE3F5E00C941623C8ED94
:100A8000D0E088818F7E8883E7EDF0E0808181600F
:100A9000808384E082BF81E080937B0288818E7FA7
:100AA000888302EE10E0F80110821092DA0081EEE5
:100AB000C82ED12CF601108288818F778883888197
:100AC0008068888388818F7D888319BC1092860214
:100AD00010928702109285021092840290EEE92E05
:100AE000F12CF70180818B7F8083888181608883EE
:100AF00042E060E080E00E940705F60180818E7F81
:100B00008083F80180818160808380818860808318
:100B1000F70180818E7F8083888180618883CDB753
:100B2000DEB7E8E00C943223FC0180918E029091B4
:100B30008F0286179707A0F06115710529F490912F
:100B4000E8009E779093E80090E06115710551F4FC
:100B5000911108C08091E80082FF34C080E00895C0
:100B6000BC01F2CF809186028823C1F18530C1F1AA
:100B70008091E80083FD30C08091E80082FDEACFDB
:100B80008091E80080FFE1CF8091F3002091F20096
:100B9000382F6115710519F02830310558F091E0B2
:100BA0002830310509F090E02091E8002E7720935D
:100BB000E800CBCF81918093F100615071092F5FE4
:100BC0003F4FE7CF80918602882341F0853041F086
:100BD0008091E80083FFBECF81E0089582E0089510
:100BE00083E008950895089587E797E790930108B3
:100BF0008093000888E19AE00FB6F894A895809356
:100C000060000FBE90936000FFCF2FB7F894609103
:100C10007702709178028091790290917A022FBFC9
:100C2000089580911E01089590911F019130D1F493
:100C30009091740297FF16C0E82FE695E695E69529
:100C4000EE31E0F4F0E0EE55FE4F282F277081E002
:100C500090E001C0880F2A95EAF780959281892358
:100C600082830895ECE9F1E09191891303C0DF01DB
:100C700011971C9291E0E23AF907B1F7089590912B
:100C80001F019130C1F49091740297FF14C0E82FB6
:100C9000E695E695E695EE31F8F4F0E0EE55FE4F78
:100CA000877021E030E001C0220F8A95EAF7828147
:100CB000822B82830895ACE9B1E0EFEF90E02D91B3
:100CC000821751F0EF3F19F4211101C0E92F9F5F06
:100CD0009630A9F7EF3F09F408950E2E000CFF0B94
:100CE000E656FE4FE6CFA3E0B0E0E9E7F6E00C946D
:100CF0001C23209172023091730228173907A1F04A
:100D00009093730280937202E0917002F0917102ED
:100D1000309751F024E029839B838A830084F185F6
:100D2000E02DCE01019609952396E2E00C9438233C
:100D3000A3E0B0E0EEE9F6E00C941C2320916E02F3
:100D400030916F0228173907A1F090936F028093BA
:100D50006E02E0917002F0917102309751F023E041
:100D600029839B838A830084F185E02DCE0101963F
:100D700009952396E2E00C943823E0917002F091FB
:100D80007102309729F00190F081E02D09950895C6
:100D900080E00895FC01EE0FFF1FE80FF91FE45AF1
:100DA000FD4F61834083228308956E9A089524EF56
:100DB000611121E3E22FE295EF70F0E080A190E075
:100DC0002F7002C0959587952A95E2F78170089556
:100DD00084EF611181E3E82FE295EF70F0E041A12B
:100DE0008F7021E030E0B90102C0660F771F8A954D
:100DF000E2F7CB01962F9095942391A392A1892B92
:100E000082A3089590915602E92FF0E04091570295
:100E10009F012F5F3F4F2370332742171306A9F01E
:100E2000E85AFD4F282F2F7780818078822B60FB36
:100E300087F980839F5F937090935602809154024C
:100E40008F5F8093540281E0089580E00895CF93EE
:100E5000DF938091210280FD0CC0D0E0C0E020E053
:100E600040E060E0CE010E94CA062196C630D1055E
:100E7000B1F70E94FB0CDF91CF910895FF920F9381
:100E80001F93CF93DF93182F062FF42E809121020A
:100E900080FF0EC0D0E0C0E02F2D402F612FCE018B
:100EA0000E94CA062196C630D105B1F70E942707D5
:100EB000CDB7DEB7E5E00C94352380912102982F61
:100EC0009C7F29F48370846080932102089587FFBA
:100ED000FDCF83708C67F8CFB0E0A0E0E2E7F7E0E9
:100EE0000C9416239B01E82FF0E0E351FF4F3111E2
:100EF00009C0E4918E2F7E2F6E2FCDB7DEB7E8E0CC
:100F00000C943223E32EF12CE491FE2F0E2F10E0EF
:100F100046E0649FC0011124CFEFD0E0BE010E94E3
:100F2000F822AB01822F90E0880F991F25E5249FBE
:100F3000B001259F700D1124861B970B982F990FD8
:100F4000980FBE016E197F09609FD001619FB00D9F
:100F5000709FB00D11248B2F399F90011124232FE6
:100F60003327BE01621B730B609F9001619F300DA0
:100F7000709F300D11246E01C91AD108CE9CB001AA
:100F8000CF9C700DDE9C700D1124672F7727C61B38
:100F9000D70BC09F7001C19FF00CD09FF00C1124A3
:100FA0007F2D42305105A1F050F44115510509F44F
:100FB000A3CF4130510581F07B2F832F9DCF44304B
:100FC000510569F080F04630510509F495CFF4CF12
:100FD000EB2F8F2D7F2F90CF7E2FE32F8DCFEF2DF7
:100FE0007B2F8F2F89CF732FEB2FFBCF762F9091F5
:100FF000210290FF0AC0682F842F0E946C07962F51
:10100000672F482F892F0E943E070895CF93DF93C3
:10101000EC01E1E2F2E0438162818C810E94F607FB
:101020008C818F5F8C83DF91CF910895CF93DF9375
:10103000EC01EC81F0E0EE50FE4F4491E1E2F2E091
:10104000628181810E94F6078C818F5F8C83DF91A2
:10105000CF910895CF93762FC22F682F842F0E94AF
:101060006C07472F282F8C2F90E00E94CA06CF9143
:1010700008950F931F93CF93DF938C01D0E0C0E0CE
:10108000F80194816091230280912202C330D1053E
:10109000CCF49923C9F09E01409124020E942A08B1
:1010A0002196C630D10561F70E942707F801848197
:1010B00090E00196817099278483DF91CF911F91F1
:1010C0000F910895992339F39E0140E0E7CFB0E0F6
:1010D000A0E0EDE6F8E00C941723FC018281FF24E8
:1010E000FA9480FD02C0FF24F394D0E0C0E096E0C3
:1010F000D92E20E040E060E0CE010E94CA0604E064
:1011000010E0E12C809120028E0D8730ACF16D2D26
:101110000E944323892F082E000C990BC817D9076A
:1011200091F480912402809FA001819F500D112491
:1011300055954795559547959E016091230280915D
:1011400022020E942A08EF0C01501109D9F62196BB
:10115000C630D10571F60E94270780912002F1E088
:10116000FF1210C081110CC085E080932002CDB722
:10117000DEB7E7E00C94332387FFCDCF8A5FCBCF78
:101180008150F3CF90E00196BE010E945123EDCF34
:10119000FF920F931F93CF93DF93EC01F12C10E09C
:1011A00000E08C81980140912402609123028F0D10
:1011B0000E942A080F5F1F4F8AE2F80E06301105C1
:1011C00081F70E9427079A818C8190FF07C08F5F6B
:1011D0008C83CDB7DEB7E5E00C9435238150F8CF92
:1011E00080E00895F894E82FE295EF70F0E031A1E7
:1011F000282F2F7081E090E001C0880F2A95EAF730
:10120000982F9095932391A392A1892B82A37894F0
:1012100008959091740292FF10C041E0282F24712C
:10122000243009F040E031E0282F2871283009F0FF
:1012300030E0431711F02CE0822793FF10C041E00B
:10124000282F2471243109F040E031E0282F287143
:10125000283109F030E0431711F02CE0822730915B
:10126000750230FF10C051E0282F2171213009F0A4
:1012700050E041E0282F2871283009F040E0541751
:1012800011F029E0822731FF10C041E0282F2171A1
:10129000213109F040E031E0282F2871283109F090
:1012A00030E0431711F029E0822794FD877E0895EE
:1012B00082389105B9F1B0F48133910509F47DC00C
:1012C00048F48932910509F46DC08A32910509F418
:1012D0007BC008958533910509F45FC0893391057A
:1012E00009F10895833E9105D9F138F4803E9105C6
:1012F00029F1823E910579F10895863E9105D9F153
:10130000873E910509F43EC0843E910541F5209148
:10131000750221FF24C08091740284FD19C087EEFC
:1013200090E0089520917402237009F05AC0209132
:10133000750223FF14C089E290E0089520917402A1
:1013400020FD38C03091750230FF09C024FF43C032
:1013500090E080E008952091740222FDF7CF089577
:101360002091740222FD3AC03091750230FD39C0DF
:1013700024FFF5CFEDCF2091740223FFF0CF24FDA1
:10138000E7CFCDCF2091740223FD2EC0309175029E
:1013900031FFEECF84EE90E008952091740225FF96
:1013A000DECFC9CF2091740225FD21C020917502A6
:1013B00023FFD5CF89E390E0D2CF2091740226FF9E
:1013C000CECF8AE290E008952091740226FFC7CF25
:1013D00081E390E0089583EE90E0089582EE90E03E
:1013E000089580EE90E0089586EE90E0089585E3FC
:1013F00090E00895733090F4633080F4811111C04F
:10140000E62FF0E083E0789FE00DF11D1124EE0F50
:10141000FF1FE455FF4F85919491089580E090E07F
:10142000089581E0FCCF1F93CF93DF930E9458096A
:10143000EC01C11580E5D807F0F5C11580E4D807A7
:1014400008F09CC0C03ED10520F5CD3CD10508F088
:1014500082C0C83AD10578F4C53AD10508F073C006
:10146000C130D10519F1209709F1C430D105F0F44C
:10147000D0E0C0E01BC0C33CD105D0F7C85AD0E0D3
:10148000CC0FDD1FCC5DDE4F0990D881C02DD46418
:101490000DC0C11580E2D80708F0D1C0C11581E0A8
:1014A000D80708F05AC0C83ED10510F7CE01DF9129
:1014B000CF911F910895C03682E5D80718F5C03442
:1014C00082E5D80708F06BC0C03282E5D80708F083
:1014D0005FC0C11582E5D80708F497C02C2F269568
:1014E000269580E2289F900111248C2F8370C1E003
:1014F000D0E002C0CC0FDD1F8A95E2F7C22BD32BC0
:10150000DD68D4CFC03A82E5D80760F4C03882E500
:10151000D80708F459C0CF71D0E0DC2FCC27C46FB6
:10152000D06AC4CFC03C82E5D80708F462C0C03E90
:1015300082E5D80708F09CCFDC2FCC27CC27DF71C1
:10154000C06FD06AB3CFC55AD0E0CF5DDE4FC8813F
:10155000D0E0D064ABCFD065A9CF8D2F0E94090910
:10156000182FCE0199270E945809C12FD0E0DC2FF7
:10157000CC27CC27DF71C82BD92B98CFCE01992748
:101580000E945809CC27DF70C82BD92BD06A8ECF88
:10159000CF71D0E0DC2FCC27C16FD06A87CF2C2F42
:1015A00026952695277080E2289F900111248C2F84
:1015B0008370C1E0D0E002C0CC0FDD1F8A95E2F756
:1015C000C22BD32BDC6872CF2C2F26952695277043
:1015D00080E2289F900111248C2F8370C1E0D0E01D
:1015E00002C0CC0FDD1F8A95E2F7C22BD32BDA683D
:1015F0005DCF8C2F8F710E940909C82FD0E0DC2F9E
:10160000CC27CC27DF71D06251CF8C2F8F710E94F5
:10161000090955E0D695C7955A95E1F7CF70D0E006
:10162000DC2FCC27282F30E084FF05C044E0220FB8
:10163000331F4A95E1F7C22BD32BD06937CF8D2FBB
:101640008F710E940909182FCE0199270E9458090D
:10165000C12FD0E0DC2FCC27CC27DF71C82BD92BB2
:10166000D2CF80959091FE0198239093FE0108952A
:101670008091FE019091D501892B9091D4019923FD
:1016800091F0892B90911F01913071F49091740227
:1016900097FF0AC09EE124EA31E040E0915040F417
:1016A00041111092D401089596E02CE931E0F5CF74
:1016B000F90151919F01552389F34F5FEFCF80913D
:1016C000C90290919002981301C008958F5F8770AE
:1016D000FACFB0E0A0E0EFE6FBE00C9415237C012C
:1016E0000091090210910A0280910702909108026C
:1016F000082B192BCFE0D0E0CC24C394D12CBC2EE6
:10170000C6010C2E02C0880F991F0A94E2F78023AD
:101710009123892B49F4219790F7B12C8B2DCDB7CC
:10172000DEB7E9E00C943123B7018C2F0E94FA094F
:101730000E94130A019779F3F1CFCF93DF93EC0165
:101740000E94690BBE010E94FA090E94130ADF91F0
:10175000CF910895933078F5833068F5E82FF0E065
:1017600083E0989FE00DF11D11249E2F977083E078
:10177000F695E7958A95E1F7EE0FFF1FEE0FFF1F35
:10178000EC53FE4F50E040E080E0219130E0092E24
:1017900002C0369527950A94E2F721703327042E6C
:1017A00001C0220F0A94EAF7822B4F5F5F4F44304B
:1017B000510559F7089580E00895933098F58330E6
:1017C00088F5E82FF0E083E0989FE00DF11D1124EB
:1017D0008E2F877041E001C0440F8A95EAF783E0BD
:1017E000F695E7958A95E1F7EE0FFF1FEE0FFF1FC5
:1017F000EC53FE4F30E020E070E05191DF01119793
:10180000CB01022E02C0969587950A94E2F781706B
:1018100081958527842385278C932F5F3F4F243024
:10182000310559F7089590930A02809309020895AB
:1018300021E030E002C0220F331F8A95E2F72095A5
:1018400030958091090290910A02822393230E948D
:10185000130C08959091D301809589238093D3012F
:10186000282F277069F4891759F09091750292FF1B
:1018700007C08695869586950E94180C1092D30114
:10188000089521E030E002C0220F331F8A95E2F76D
:101890008091090290910A02822B932B0E94130CD3
:1018A000089590930802809307020895FC01248113
:1018B0002223C1F0808191810E949D0B92959F709F
:1018C000963091F058F4925F9F70923058F4803FB8
:1018D00019F030F4883E30F481E008959A5FF4CF37
:1018E000843FD1F380E00895883EB0F3813FD1F783
:1018F000F3CFA6E0B0E0EFE7FCE00C941B234983B4
:101900005A8349815A819923A1F0222391F0CA0177
:101910000E94690B182F682F89819A810E94DD0B24
:1019200069817A81812F0E94FA092696E3E00C945E
:101930003723CA010E94AA0B182FF2CF0F931F93CF
:10194000CF93DF938B01EA0190918602943061F589
:101950008093E9008FEF9091E800815095FD06C0DB
:1019600095ED9A95F1F700008111F5CF8091E8008F
:1019700085FF1AC00E94B704811111C08091E80050
:1019800085FD06C08091E8008E778093E800F2CF55
:10199000F80181918F018093F100219779F780916F
:1019A000E8008E778093E800DF91CF911F910F912F
:1019B000089543E050E0BC0182E00E949E0C08952F
:1019C00040E250E0BC0182E00E949E0C0895CF935B
:1019D000DF93EC0148E050E0BC0181E00E949E0CE6
:1019E00088E0FE01ACE7B2E001900D928A95E1F744
:1019F000DF91CF9108953EB13F7B2EB120644FB768
:101A0000F8948CE592E0FC015191CF0168E02EB989
:101A1000000000C057FF3EB9550F000000C000C0D5
:101A200000C03EB900C06A9591F7F2E08E369F077C
:101A300051F74FBF8FE594E00197F1F700C0000028
:101A40000895AB0124E630E0BC0188E70E946822DB
:101A500021E0892B09F020E0822F08958091520225
:101A600090915302911103C091E089270895882332
:101A700069F062E070E084EF92E00E94210D811134
:101A800003C0809152020895109252028091520236
:101A9000EBCFCF93C0915202809153028823D1F0B3
:101AA0000E940506605A75418F4F9F4F60934E020A
:101AB00070934F028093500290935102C11108C05D
:101AC00062E070E082EF92E00E94210D811105C07A
:101AD000C09152028C2FCF91089581E080935202E1
:101AE000F7CF2F923F925F926F927F928F929F9249
:101AF000AF92BF92CF92DF92EF92FF920F931F931C
:101B0000CF93DF9380915302882309F445C08FEC73
:101B100092E09093D0048093CF0480912A02909118
:101B20002B029C012F5F3F4F30932B0220932A0200
:101B30008F35914054F08091150191E08927809371
:101B4000150110922B0210922A0280911501882310
:101B5000A9F186EF92E00E9437048091CD02909126
:101B6000CE02892B71F5809152028823A9F00E9440
:101B7000050600914E0210914F02209150023091C3
:101B80005102601B710B820B930B6F3F7F4F8F4F86
:101B90009F4710F40E942E0DDF91CF911F910F915E
:101BA000FF90EF90DF90CF90BF90AF909F908F907D
:101BB0007F906F905F903F902F90089586EF94E014
:101BC000CACF80915302882371F280914D02811116
:101BD000CACF0E94490D2091CD023091CE0221152D
:101BE000310509F280E041E050E0082F10E01A01D1
:101BF000082E02C0220C331C0A94E2F7B1016223C2
:101C00007323672B11F48F5FF0CF90914C0290FFFC
:101C100095C0880F880F880F8093180110921B01C0
:101C2000895F8093190183E080931C0124E630E0F2
:101C300047E050E066E171E088E70E942422892BAA
:101C400009F091CFA80125E0440F551F2A95E1F72F
:101C500080914C0280FF84C0ECE2F2E080E2DF0180
:101C60001D928A95E9F7A4E9B1E000E911E088E95D
:101C7000C82E81E0D82E97E0592E772473948D9149
:101C8000E80129918E01240F352F311D21533D4F3D
:101C9000E82FF0E0E45DFD4F90E080E0652C681AED
:101CA000872C082E01C0880C0A94EAF77901A12C30
:101CB000E701B9907E01B820662D6A196770962EEB
:101CC000062E000C770BDB2D01C0DD0F9A94EAF78E
:101CD0007195619571096770772701C0B6946A950F
:101CE000EAF7BD2A6081962E9B289082A39468E033
:101CF000A612DECF019631968830910579F6CA1684
:101D0000DB0609F0BCCF04E610E020E230E04CE254
:101D100052E060E488E70E94AE22892B09F023CFCD
:101D2000E101C095D0958091CD029091CE02C8235B
:101D3000D923D093CE02C093CD0215CF8295880FC0
:101D400080768093180198013695279536952795CA
:101D500020931B01815E8093190120931C0166CFA3
:101D600041535D4F04E610E020E230E0D2CFB0E016
:101D7000A0E0EDEBFEE00C94122349015A016B0147
:101D80007C010E945D078401A4016A2D7B2D88E0FF
:101D900090E00E94FD2394014A2D5B2DB601C701FE
:101DA00000E20E948623622F83E290E00E94EB23F0
:101DB000CDB7DEB7ECE00C942E23B0E0A0E0E3EE6C
:101DC000FEE00C941123182FF62E042FE22E909192
:101DD000210290FF2FC0E92FE695E695AE2FB0E0E7
:101DE000A059BE4F8C9180931E029C7F943039F590
:101DF000612F7F2D842F0E946C07962F672F482F0D
:101E0000892F0E943E0710932202F0922302009332
:101E10002402EE2079F02091210260912502709138
:101E20002602312F4F2D502F8091270290912802AA
:101E30000E94B70ECDB7DEB7EDE00C942D238230B3
:101E400019F400912402DFCF863019F41091220298
:101E5000DACF8930D9F38531B1F6E5518E2F817013
:101E6000782EE695F0E0E351FE4FE491CE2FD0E0DE
:101E7000B12CA12CD12CC12C86E0882E912CC5012F
:101E8000B4010E94F822812F711012C0860F9601B2
:101E9000402F6F2D0E942A088FEFC81AD80AAC0E67
:101EA000BD1E86E0C816D10451F70E942707ABCFAC
:101EB000861BEDCFE1E2F2E0438121E1421B08F411
:101EC00040E021E0628181810E94DD0E0895E1E21F
:101ED000F2E0438121E1420F08F44FEF21E06281FB
:101EE00081810E94DD0E0895E1E2F2E0628121E14C
:101EF000621B08F460E021E0438181810E94DD0ED5
:101F00000895E1E2F2E0628121E1620F08F46FEFEF
:101F100021E0438181810E94DD0E0895E1E2F2E03B
:101F2000818121E04381628188500E94DD0E089505
:101F3000E1E2F2E0818121E043816281885F0E94D9
:101F4000DD0E089580912502882319F08150809339
:101F500025022091210230912202409123025091CA
:101F600024026091250270912602809127029091AF
:101F700028020E94B70E089580912502833018F43C
:101F80008F5F80932502209121023091220240919F
:101F900023025091240260912502709126028091C3
:101FA0002702909128020E94B70E08959091750221
:101FB00092FB222720F9281779F080FB92F9909361
:101FC0007502609174027091750284E090E00E9445
:101FD000092482E00E942A0C089580911F0181301B
:101FE00059F58091740287FF27C00E94380B8093B7
:101FF000A30140E250E066ED71E082EA91E00E94C8
:10200000BA23892BC1F080E2E2EAF1E0A6EDB1E06B
:1020100001900D928A95E1F7E0917002F0917102C2
:10202000309749F086E08093A2010480F581E02D8D
:1020300082EA91E0099508950E94380B80939A01F5
:1020400048E050E066EF71E08AE991E00E94BA232F
:10205000892B89F388E0EAE9F1E0A6EFB1E001908D
:102060000D928A95E1F7E0917002F091710230973C
:1020700011F30280F381E02D8AE991E0DBCF109229
:10208000FE0180911F018130C1F48091740287FFAD
:1020900014C0E4EAF1E08EE1DF011D928A95E9F7D0
:1020A00090E080E00E94980690E080E00E94730635
:1020B0001092D5010E94ED0F0895ECE9F1E086E061
:1020C000EBCFAAE2B0E0E7E6F0E10C941B2388E84E
:1020D00092E02091F100FC012193CF01F2E08039E0
:1020E0009F07B9F780918902833009F470C0B8F472
:1020F000813009F447C0823009F4B5C08091E8000E
:1021000083FF89C280918802909189029A3008F0F9
:1021100082C2E92FF0E0EF5DFB4D0C9465238A301D
:1021200009F490C08B3009F46FC0893039F7809181
:102130008802813219F780918C0290918D0202976A
:10214000E8F68091E800877F8093E8008091E800BE
:1021500082FF38C09091F3008091F200029731F431
:102160008091F100813011F0863021F48091F100EE
:1021700080931E018091E8008B778093E8000E9495
:10218000E804BCCF80918802813A09F0B7CF8091F2
:10219000E800877F8093E80080918C0290918D0207
:1021A000892B61F468E08CE792E070E00E9494056E
:1021B0008091E8008B778093E800A0CF60E090E00A
:1021C00080E0F3CF809186028111C0CF97CF8091BC
:1021D0008802813A09F092CF80918C0290918D0211
:1021E000892B09F08BCF8091E800877F8093E800EE
:1021F0008091E80080FFFCCF80911F018093F10067
:102200008091E8008E77B9CF80918802813209F001
:1022100075CF80918C0290918D02892B09F06ECF41
:102220008091E800877F8093E8000E94E80481E0C5
:1022300090918A02911101C080E080931F010E9459
:102240003F105CCF80918802813209F057CF809196
:10225000E800877F8093E8000E94E80480918B0269
:1022600080931D014BCF80918802813A09F046CFBF
:102270008091E800877F8093E8008091E80080FFEC
:10228000FCCF80911D01BACF803899F0823809F0D7
:10229000C2C180918C028F70873008F0BCC18093DE
:1022A000E9008091EB0085FB882780F91092E90016
:1022B00006C0809184029091850291118260909174
:1022C000E800977F9093E8008093F1001092F1006E
:1022D0008091E8008E779BC1882309F489C1823000
:1022E00009F099C180918A0281118CC180918C0280
:1022F0008F702FEF280F263008F08DC18093E900F2
:102300002091EB0020FF7EC1933031F48091EB00EF
:1023100080628093EB0076C19091EB009061909386
:10232000EB0021E030E001C0220F8A95EAF720930C
:10233000EA001092EA008091EB008860EACF8111F8
:102340006AC110918A021F778091E3008078812B07
:102350008093E3008091E800877F8093E8000E94EB
:10236000E8048091E80080FFFCCF8091E300806862
:102370008093E30082E0111183E0809386024BC1D9
:102380008058823008F047C180918A0290918B0278
:102390008C3D23E09207A1F583E08A838AE289835A
:1023A0004FB7F894DE01139620E03EE051E2E32FB0
:1023B000F0E050935700E49120FF03C0E295EF70E6
:1023C0003F5FEF708E2F90E0EA30C0F0C7968D939C
:1023D0009D932F5F243159F74FBF8091E800877F8D
:1023E0008093E8006AE270E0CE0101960E949405B5
:1023F0008091E8008B778093E8000DC1C096E7CF0D
:1024000040918C0250918D02292F332723303105C2
:1024100009F444C078F52130310509F46FC08BE32D
:1024200090E0E7EAF7E02230310509F0F4C02091AE
:10243000E800277F2093E80020918E0230918F02E0
:102440008217930708F49C0140E02115310509F03B
:1024500064C0411162C08091E80082FDC9CF8091C3
:102460008602882329F2853019F28091E80083FFE3
:10247000F2CFBECF21323105A9F12232310509F068
:10248000CAC04115510509F443C04130510509F056
:10249000C2C08DE690E0E6EFF6E0C9CF9927813023
:1024A0009105C1F0009759F0029709F0B4C0E4EF2C
:1024B000F7E0E4918E2F90E0E4EFF7E007C0ECE264
:1024C000F8E0E4918E2F90E0ECE2F8E0009709F458
:1024D000A2C0ADCFEEE0F8E0E4918E2F90E0EEE008
:1024E000F8E0F4CF4115510571F04130510509F084
:1024F00092C089E090E0E2EDF7E099CF82E190E0D0
:10250000E2EEF7E094CF89E090E0E9EBF7E08FCFDF
:1025100084E490E0E3E6F7E08ACF809186028823A6
:1025200009F466CF853009F463CF8091E80083FD1C
:102530005FCF8091E80082FD8ECF8091E80080FF20
:1025400084CF9091F3008091F2002115310519F0AC
:102550008830910550F041E0089709F040E0809103
:10256000E8008E778093E80070CF44914093F100AB
:102570003196215031090196E8CF803809F04BC0DF
:102580008091E800877F8093E800809187028093A4
:10259000F1009ECE81113FC010918A021230D8F511
:1025A0008091E800877F8093E800109387020E9463
:1025B000E804112311F084E005C08091E30087FD59
:1025C000FACF81E08093860242E061EC81E00E94D4
:1025D000070542E261EC82E00E94070580918602D5
:1025E000843021F081E08093200115C082E0FBCF90
:1025F00080918A02813079F481E0933009F080E0A3
:10260000809385021092E9008091E800877F809393
:10261000E8000E94E8048091E80083FF0AC08091EE
:10262000E800877F8093E8008091EB0080628093D0
:10263000EB00AA96E3E00C9437230E943F102FEFA3
:1026400084E39CE0215080409040E1F700C000000E
:1026500088E19AE00FB6F894A895809360000FBEC9
:1026600090936000FFCF882321F00E94310B0E94DD
:10267000ED0F0895882339F09091FE01982B9093E7
:10268000FE010E94ED0F0895882339F19CEF980F09
:10269000913A28F40E9414060E94ED0F089590E2EA
:1026A000980F983050F4877091E001C0990F8A9587
:1026B000EAF7892F0E94310BEFCF9BE5980F9330FB
:1026C00028F490E080E00E9498060895885A8B31A3
:1026D00020F490E080E00E9473060895CF93C82F05
:1026E0008823B1F18CEF8C0F813AA0F580911F0106
:1026F000813001F58091740287FF1CC0EC2FE695B4
:10270000E695E695F0E0EE55FE4F828190E04C2F85
:10271000477021E030E002C0220F331F4A95E2F7F4
:1027200082239323892B79F08C2F0E9414060E9418
:10273000ED0F09C0ECE9F1E08191C817A9F381E040
:10274000E23AF807C9F78C2F0E943F060E94ED0F6E
:10275000CF91089580E28C0F883068F4C77021E033
:1027600030E001C0220FCA95EAF78091FE01822B6A
:102770008093FE01EBCFEBE5EC0FE33040F4F0E0AB
:10278000EF5DFE4F808190E00E949806E1CFC85A2D
:10279000CB31F0F6EC2FF0E0EE0FFF1FEC5DFE4FBB
:1027A000808191810E947306D3CF1F920F920FB642
:1027B0000F9211242F933F934F935F936F937F93C7
:1027C0008F939F93AF93BF93CF93DF93EF93FF9339
:1027D000D091E900DF708091EC00C82FC17080FDBE
:1027E000C0E81092E9008091F000877F8093F000AC
:1027F00078940E9461101092E9008091F000886046
:102800008093F000CD2BCF70C093E900FF91EF9142
:10281000DF91CF91BF91AF919F918F917F916F91F8
:102820005F914F913F912F910F900FBE0F901F908E
:1028300018951F920F920FB60F9211242F933F936A
:102840004F935F936F937F938F939F93AF93BF93B8
:10285000EF93FF938091E10082FF09C08091E20035
:1028600082FF05C08091E1008B7F8093E100809121
:10287000DA0080FF24C08091D80080FF20C08091C2
:10288000DA008E7F8093DA008091D90080FFAAC0A1
:1028900080E189BD82E189BD09B400FEFDCF81E000
:1028A0008093860280917B02811109C00E94980466
:1028B0000E9439058091E20084608093E20080915B
:1028C000E10080FF1AC08091E20080FF16C0809175
:1028D000E2008E7F8093E2008091E200806180932D
:1028E000E2008091D80080628093D80019BC85E016
:1028F0008093860283E0809320018091E10084FF31
:1029000030C08091E20084FF2CC080E189BD82E16B
:1029100089BD99B5892F817090FFFBCF9091D80028
:102920009F7D9093D8009091E1009F7E9093E1006D
:102930009091E2009F7E9093E2009091E20091607E
:102940009093E20090918702992309F451C094E09A
:102950009093860290918602943009F482E08093ED
:1029600020018091E10083FF2CC08091E20083FF71
:1029700028C08091E100877F8093E10082E080930E
:102980008602109287028091E1008E7F8093E100A1
:102990008091E2008E7F8093E2008091E20080616E
:1029A0008093E20042E060E080E00E9407058091B1
:1029B000F00088608093F00081E080932001809394
:1029C0001F01FF91EF91BF91AF919F918F917F91E7
:1029D0006F915F914F913F912F910F900FBE0F908C
:1029E0001F90189519BC1092860210927B0267CF37
:1029F0009091E30097FD02C0982FAACF93E0A8CF53
:102A000078941F921FB61F9211248F939F93AF93B8
:102A1000BF938091770290917802A0917902B09152
:102A20007A020196A11DB11D8093770290937802DE
:102A3000A0937902B0937A02BF91AF919F918F9149
:102A40001F901FBE1F9018959C014FB7F89480915E
:102A5000770290917802A0917902B0917A024FBFEB
:102A6000821B930B08952FB7F89480917702909171
:102A70007802A0917902B0917A022FBF08950F9346
:102A80001F93CF93DF93C62FD42F022FFC01858194
:102A90008823A9F06093CC020E9433159093CB0257
:102AA0008093CA02C77081E001C0880FCA95EAF717
:102AB0000E943A13DF91CF911F910F910895809159
:102AC000CC02681335C08091CA029091CB020E945B
:102AD0002415883C910560F510E21D0FCD17B9F063
:102AE00080E28C0F883040F4C77081E001C0880F0D
:102AF000CA95EAF70E943313183048F481E09D2FFD
:102B0000977001C0880F9A95EAF70E943A13802FB8
:102B10000E946E13802F0E944413183058F6D7700D
:102B200081E001C0880FDA95EAF70E943313C2CF23
:102B3000C77081E001C0880FCA95EAF7F6CF90917F
:102B4000210290FF35C09370811133C0946090933F
:102B50002102662391F020912102309122024091BE
:102B600023025091240260912502709126028091E7
:102B70002702909128020E94B70E6091210266956B
:102B8000669570E04BE050E08AE091E00E94AD2352
:102B9000892BB9F010921F0281E080931B0220E084
:102BA0004091240260912302809122020E94DD0E56
:102BB0000895803210F09C67CACF880F880F982B39
:102BC000C6CF81E080931F020E94331590931902B3
:102BD00080931802E1CF80912102869586958150DD
:102BE00009F48FE161E00E949F1508958091210210
:102BF000869586958F5F803208F081E061E00E94C3
:102C00009F150895B0E0A0E0E8E0F6E10C941423ED
:102C10008C01FC018481882341F121E040815181B4
:102C20006281738195810E94790CEC01FC01E8516D
:102C3000FC47E730F105A8F5E55DFB4D0C946523F5
:102C400026E241EE61EEC8010E943F158091D3015A
:102C5000877059F0F8018581882339F080917502D9
:102C600082FF03C082E00E942A0CCDB7DEB7EAE003
:102C70000C94302327E245EE65EEE5CF26E241EEE7
:102C800060EEE1CF27E245EE64EEDDCF26E241EED5
:102C900062EED9CF27E245EE66EED5CF28E241E0DD
:102CA000EBCFF8019581992309F402C41092CC026C
:102CB0009E0130572332310508F0E6C384E090E0EE
:102CC0000E94D5239093750280937402FE01E15017
:102CD000F047E232F10520F4EE5CFB4D0C946523E5
:102CE0008091740281608093740295C08091750216
:102CF0008860809375028FC0809174028260F3CFE8
:102D0000809174028460EFCF809174028860EBCF71
:102D1000809175028160EDCF809175028260E9CF6C
:102D2000809174028061DFCF809174028062DBCF7A
:102D3000809174028064D7CF0E943F10809174020A
:102D40008068D1CF809174028C60CDCF8091750264
:102D50008360CFCF809174028E7FC5CF8091750242
:102D6000877FC7CF809174028D7FBDCF8091740221
:102D70008B7FB9CF80917402877FB5CF8091750228
:102D80008E7FB7CF809175028D7FB3CF8091740213
:102D90008F7EA9CF809174028F7DA5CF8091740220
:102DA0008F7BA1CF0E943F10809174028F779BCFC1
:102DB00080917402837F97CF809175028C7F99CF29
:102DC0008091740282FB992790F921E0922790FB71
:102DD00082F990FB83F987CF80917502982F9095A7
:102DE00091708E7F892B90FB81F983CF9091740233
:102DF000892F8F7B96FF806476CF0E943F10909141
:102E00007402892F97FB87F980586DCF61E08EE0BF
:102E100090E00E94EB23609174027091750284E04F
:102E200090E00E9409240E943F1010CF60E0EFCF95
:102E300090917402892F8F7E94FF806154CF90917E
:102E40007402892F8E7F90FF81604DCF9091750223
:102E5000892F877F93FF88604CCF85E324C385E368
:102E600031C38091210280FF19C0282F2E7F20932B
:102E7000210230912202409123025091240260915C
:102E800025027091260280912702909128020E94CB
:102E9000B70E10921F020E942707D8CE8160809340
:102EA000210261E0869586950E949F15CFCE8823EA
:102EB00029F00E94EB15CACE8823D9F30E94F6159B
:102EC000C5CE882329F00E948E0FC0CE8823D9F367
:102ED0000E94980FBBCE882329F00E94740FB6CEB3
:102EE0008823D9F30E94810FB1CE882329F00E9454
:102EF0005A0FACCE8823D9F30E94670FA7CE882340
:102F000029F00E94A20FA2CE8823D9F30E94BC0F01
:102F10009DCE9E01205E324520323105A8F49111EC
:102F200015C0CF7181E090E09C0102C0220F331FD9
:102F3000CA95E2F7E901622F83E090E00E94EB235B
:102F4000CE010E94510C82CE992381F0C3303CE720
:102F5000D30709F478C008F05BC0C1159CE7D90716
:102F600009F464C0C130DC4709F473C0F8018581FD
:102F7000C081D181882309F47AC0CE010E94690BF7
:102F8000F82E682FCE010E94DD0BBE018F2D0E940E
:102F9000FA090E94130AD82FC92FA82EF801C5805C
:102FA000B680B2943FE0B3228091D301877009F1DB
:102FB000FC2CCC20F9F0892F807F803469F080E2EE
:102FC0008D0F8830B0F0892F807E803229F4F1E0B7
:102FD000FD1778F4BB2069F08091750282FF09C06B
:102FE00082E00E942A0C8091D3018770FF24F39421
:102FF0008111F12CEC2EE2942FE0E2222BE02E1531
:1030000008F49AC0EE2DF0E0EC5AFB4D0C946523C9
:10301000CB35FCE7DF0749F1CC352CE7D207D9F0F7
:10302000CA35DC4709F0A2CF81E01CC00E943F10E6
:103030008FEF94E3ECE081509040E040E1F700C076
:1030400000000E94F4056FEF7FEF90E080E00E94A7
:1030500009240E941D138091750282FB882780F944
:1030600091E089270E94D60F81CF80E0FBCFCE016F
:103070000E94AA0BF82E89CF3C2F3F70D32EC07F21
:1030800019F0D29490EFD922CC20B9F0DD2069F06C
:1030900080E28D0F883010F0A11009C08091FE01F0
:1030A000D82AD092FE010E94ED0F8D2F43C080914F
:1030B000D501D82AD092D501F6CF8D2F0E94441386
:1030C000DD20D1F1D05ED83010F0A11004C08D2DDC
:1030D0000E94310B06C0D0948091D501D822D092A5
:1030E000D5010E94ED0F28C08C2F8F70D82EC07F85
:1030F000C03219F0D29480EFD822AA2059F091E082
:10310000A91609F478C0CC2009F484C0BB2009F4C6
:1031100046C0CBCF8091750282FD3DC0CC20A9F185
:10312000DD2039F08091FE01D82AD092FE010E9464
:10313000ED0F80E00E946E13EE2DE850FF0B3497E8
:1031400010F40E94BD06FF20A9F08091D30180FDFC
:1031500011C0F80115828695869586950E94410CCE
:10316000C8010E9402168091D301869586958695A6
:103170000E94180C20E0F801408151816281738126
:10318000848195810E94790C70CD80E00E94441367
:10319000DD2091F29CCFCC20A1F0B11004C08D2D88
:1031A0000E943A13C9CFE1E0BE12C6CF8091D4018C
:1031B0009D2D9823D91609F4BFCFD82AD092D401D7
:1031C000BBCFB110B9CF8D2D0E9433139091D40194
:1031D0008D2D892329F08D2D809589238093D4010D
:1031E0008091C3019D2D982309F4A6CFD094D822B5
:1031F000D092C301A1CFCC2029F0F5E0FB1508F453
:103200009BCFCDCF24E02B1508F496CF8D2D0E94B7
:10321000331392CFBB20D1F339E3A31209C08FEF50
:1032200097EEE3E081509040E040E1F700C00000FD
:103230008D2F0E94441380CF8C2F869586958370A6
:1032400069F0813009F078CF8D2F9C2F9370C110D9
:1032500002C080E090E00E9473066ECF8D2F9C2FFD
:103260009370C11002C080E090E00E94980664CF85
:103270008C2F837009F03FC0C1105ECF4D2F429557
:1032800046954770440F440F2D2F2F7030E0042EC9
:1032900002C0220F331F0A94E2F790E080E0D4FFCF
:1032A00009C08FE090E002C0880F991F4A95E2F7AD
:1032B00080959095C695C695C370C23099F078F404
:1032C0004091070250910802C13039F0822B932BB4
:1032D000842395230E94510C2FCF242B352B822B36
:1032E000932BF8CF822B932B209107023091080269
:1032F00082279327EFCF8695CC2011F08C2F8170F9
:10330000882309F419CF4D2F429546954770440FF5
:10331000440F2D2F2F7030E0042E02C0220F331FD8
:103320000A94E2F790E080E0D4FF09C08FE090E0DB
:1033300002C0880F991F4A95E2F780959095C6952F
:10334000C695C370C23099F078F44091090250914B
:103350000A02C13039F0822B932B842395230E94DB
:10336000130CEACE242B352B822B932BF8CF822BF8
:10337000932B2091090230910A0282279327EFCFE5
:10338000CF70CC2029F08C2F0E94410C8D2F08CFBC
:103390008D2F0E9433138C2F0E94180CCDCE8D2FB1
:1033A000F2EFAF1699F1FA1570F020EFA216D1F0F6
:1033B00031EFA31691F0CC2009F456C0B11075CEB0
:1033C0008C2F8F7127C093EFA91639F1E4EFAE125D
:1033D000F2CF9091750292FD2EC08C2F8F71CC2070
:1033E000D9F218C0CC2069F0F4E0FB1508F4A4CEA3
:1033F000CF7181E090E002C0880F991FCA95E2F773
:10340000B8CF25E02B1508F497CEF2CF8C2F8F7113
:10341000C110C2CF0E94410C8FCE90E080E0CC2042
:1034200009F49DCFCF7181E090E002C0880F991F11
:10343000CA95E2F794CFCC2061F08C2F8F7192FF68
:10344000E9CF98E0899F9001112423602093D30154
:10345000E1CF81E00E942A0CE1E0EB1508F06CCE90
:1034600082E00E942A0C68CEBB2059F0893309F013
:10347000DFCEFFEF27EE33E0F15020403040E1F7A0
:10348000D5CE8C2F8F7188CF8091FE01C631FCE79D
:10349000DF07D9F48A7A91E009F490E09093C201B1
:1034A0008111DBCC89E20E943F060E94ED0FCECB5A
:1034B000C6312CE7D20709F02CCD8091C2018111D1
:1034C000CECC89E20E941406F0CF8272FE01E05257
:1034D000F847EB30F10508F01CCDE05AFB4D0C9499
:1034E0006523CF93DF938091D201807F09F04DC097
:1034F0008091D101882309F448C0E091C90250911C
:103500009002C091CD01D091CC016091CE0170911B
:10351000CF0147E05E17C9F18E2F90E0E49FF001E4
:103520001124EF56FD4F2481222391F1489FF00191
:10353000499FF00D1124DF01AF56BD4F11962C911C
:1035400011972C1325C02C912D1322C015962C9168
:10355000159721111DC012962D913C91261B370BFA
:10356000283C3105A8F48091D2018F70806180934E
:10357000D201E956FD4F80818F70806180838CEC91
:1035800091E00E9402160E945F0BDF91CF91089597
:10359000FC013196E770BECFA4E1B0E0E2EDFAE1C4
:1035A0000C9412238C0186E0F801DE011F96019035
:1035B0000D928A95E1F7F8018481E5809CECA92EB3
:1035C00091E0B92E9091D001911128C0882319F172
:1035D000EE20F1F0C8010E94560CF82E8823C1F0AD
:1035E00087E0F801D50101900D928A95E1F780916D
:1035F000D001813031F48091CC019091CD010E94B5
:103600009D0B0E94711A8F2D6496ECE00C942E2372
:10361000C8010E940216FF24F394F5CFD080C18028
:1036200082809380F090D1012091CE013091CF0122
:10363000A401421B530BFF2009F4D9C0483C51059B
:1036400008F092C08823F9F29091CD018091D201C7
:10365000282F207F09F056C0C91214C09091CC01C8
:10366000D91210C0E11048C08F7080618093D201E0
:103670008CEC91E00E9402168091D201F8018683C1
:10368000F12CC1CFE11038C06C2D8D2D0E94790432
:103690006C2D8D2D0E947904E82E8111F1CFDF86EB
:1036A000C88A8F8598890E949D0B292F22952F709B
:1036B000243058F49F70223088F0992399F0F80153
:1036C0009681907F79F4FE2C9ECF2A5F2F70223056
:1036D00068F0C8010E940216EF2CF5CF992311F073
:1036E000882389F3805E883070F3F3CF803F58F3EE
:1036F000815F833070F7E7CF8091D2018160809342
:10370000D201BECFC91207C09091CC01D91203C01B
:10371000EE2009F48DC0C8010E94560C882309F4DC
:1037200077CFEE2009F474CF8091D201803288F0F7
:103730002091CC013091CD01398728879B868A86DC
:103740009091D0019C871D868E87CE0108960E949D
:10375000021687E0F801ACECB1E001900D928A9579
:10376000E1F70E94711A57CF9091D201292F207F43
:1037700051F48CEC91E00E94021687E0F501119261
:103780008A95E9F77DCF882309F43DCF8091CD015B
:103790008C1110C08091CC01D8120CC0E1100AC06D
:1037A0009683C8010E94021687E0F50111928A955E
:1037B000E9F729CFC8010E94560C882309F428CFC5
:1037C000EE2009F425CF8091D201803210F22091B1
:1037D000CC013091CD013A8329839C828B829091D8
:1037E000D0019D831E828F83CE010196B0CF483CCD
:1037F0005105D0F6882309F40ECFFE2CEE2009F4F3
:1038000007CF8091CD018C1120C08091CC01D812BE
:103810001CC08091D20180FD0FC0982F907F61F075
:103820008683903F31F0982F907F905F8F70892B27
:103830008683C8010E94021687E0F801ACECB1E073
:1038400001900D928A95E1F7DECEC8010E94560CD8
:1038500081117FCF8091D20181608093D201C80114
:103860000E940216D0CEABE1B0E0E9E3FCE10C949B
:103870001A234E8B5F8B688F798F8A8F9B8F192FBE
:1038800091111092D5011D8A86E0FE017696DE0127
:103890001F9601900D928A95E1F70A8D002341F061
:1038A00021E04F85588969897A89C8010E94790C7D
:1038B0000B8B1C8B87E0FE013F96DE011896019072
:1038C0000D928A95E1F7CE0108960E94CC1A8111DB
:1038D0002AC087E0FE013896DE01119601900D9214
:1038E0008A95E1F78C858823F1F02091900230E0F1
:1038F000C9010196877099274091C9024817190696
:10390000E9F097E0929FD001939FB00D1124AF563C
:10391000BD4FFE01319601900D929A95E1F780938B
:1039200090020E945F0B17E08091C9029091900273
:10393000891312C06B96E4E00C9436230E943F106A
:10394000109290021092C90287E0ECECF1E0DF01E6
:103950001D928A95E9F7E7CF819FC00111248F5608
:103960009D4F0E94CC1A882329F38091C90290E0D0
:103970000196877099278093C902D6CFA3E0B0E063
:10398000E4ECFCE10C94132319821A821B828AE571
:10399000E82E81E0F82E10E000E0CC24C394D12C76
:1039A00020E6A22E21E0B22EF70181917F018F3F08
:1039B00009F445C0F894E82FE295EF70F0E021A1FA
:1039C0008F70A60102C0440F551F8A95E2F7CA0105
:1039D000922F982B91A392A18095892382A378940A
:1039E00000C0EDE5F1E0912C31E021912F3F09F489
:1039F0004FC0A22FA295AF70B0E090968C9190E04E
:103A00002F7002C0959587952A95E2F780FD40C0FA
:103A1000832F982A330FAE16BF0639F7F701319777
:103A200080818F3F11F00E94F20850EA5A95F1F719
:103A3000E1E0F0E0EC0FFD1FE00FF11F90820F5F5F
:103A40001F4F0330110509F0AFCF43E050E0BE0136
:103A50006F5F7F4F84E092E00E94BA23892BE1F0F0
:103A600089819A81AB818093040290930502A0938F
:103A7000060281E0809303020E94331590930202B4
:103A80008093010210E0812F2396EBE00C942F230A
:103A900080E0BFCF10E022C010910302112391F308
:103AA00080910102909102020E942415059750F323
:103AB00043E050E064E072E08CE092E00E94BA23C0
:103AC000892B41F38091040290910502A091060296
:103AD00080930C0290930D02A0930E0210920302A9
:103AE000D2CFA6E0B0E0E7E7FDE10C941A230E94F4
:103AF00033158C018091FF0190910002801791078E
:103B000081F019821A820E943315682F49815A81E7
:103B1000792F80E090E00E94331C10930002009304
:103B2000FF012696E4E00C9436231F921FB61F92E5
:103B300011248F939F93AF93BF938091760281114D
:103B400013C08091770290917802A0917902B09190
:103B50007A024196A11DB11D80937702909378025D
:103B6000A0937902B0937A02BF91AF919F918F9108
:103B70001F901FBE1F901895CDB7DEB728970FB6C0
:103B8000F894DEBF0FBECDBF85B7806885BF85B70F
:103B9000806885BF84B7877F84BF0FB6F894A895E7
:103BA00080916000886180936000109260000FBE79
:103BB00080E890E00FB6F8948093610090936100E4
:103BC0000FBE81E08093200180EF98E090939901EF
:103BD000809398010E9498040E9439058091E20028
:103BE00084608093E2007894809186028823A1F01B
:103BF0001091E9001F709091EC00892F817090FD69
:103C000080E8182B1092E9008091E80083FD0E9463
:103C100061101F701093E90082E084BD93E095BDB0
:103C20009AEF97BD80936E00E4E5F2E088E0DF0153
:103C30001D928A95E9F781E08093150260E080E0AB
:103C40000E94E80661E080E00E94E806EFE8F1E00B
:103C50003197F1F700C0000010E0809115021817AD
:103C600008F4B0C087EF0E94F20885E30E94F208D2
:103C700086E30E94F20887E90E94F20883E30E942B
:103C8000F20882E30E94F20883E0ECE0F2E0DF0158
:103C9000282F1D922A95E9F7E4E0F2E0DF011D925A
:103CA0008A95E9F790E080E00E94D523853E9E4FFB
:103CB00009F461C065EE7EEF90E080E00E94092487
:103CC00060E082E090E00E94EB2381E090E090933E
:103CD00008028093070261E083E090E00E94EB23FA
:103CE00060E074E184E090E00E94092460E086E0F6
:103CF00090E00E94EB2360E087E090E00E94EB23DD
:103D000040E050E0BA0188E090E00E94FD2360E0CE
:103D100083E290E00E94EB2360E08CE090E00E9460
:103D2000EB2360E08DE090E00E94EB2319821A8281
:103D30001B821C821D821E821F82188648E050E072
:103D400067E170E0CE0101960E94DB2340E050E085
:103D5000BA018FE190E00E94FD2340E050E0BA01FB
:103D60008FE090E00E94FD2340E050E0BA0183E143
:103D700090E00E94FD2382E090E00E94C7238093A0
:103D80000F0284E090E00E94D52390937502809307
:103D900074020E94BE1CEFEFF6E721E0E150F04014
:103DA0002040E1F700C000000E94BE1C80910C0280
:103DB00080FF1AC06FEF7FEF90E080E00E9409243F
:103DC0000E94F40560E0812F0E94D706082F61E071
:103DD000812F0E94D706E12FF0E0EC5EFD4F880FA7
:103DE000802B80831F5F39CF83E090E00E94C72340
:103DF00090E00E94510C10924C0280E880932902BE
:103E00000E94F0216BE070E085ED90E00E94210DB2
:103E10008823E9F180914C0265E070E081FD67C183
:103E200080ED90E00E94210D882389F16DE070E023
:103E30008EEB90E00E94210D882349F10E94050637
:103E4000605A75418F4F9F4F60934E0270934F029F
:103E50008093500290935102EFECF2E080E092E008
:103E6000DF019C011D9221503040E1F7F093D00416
:103E7000E093CF048FEF9FEF9093CE028093CD021B
:103E800081E0809353028093520210924D02809100
:103E90000B02811180C088E090E00E94CF234B018B
:103EA0005C0183E290E00E94C723282F30E040E0CD
:103EB00050E060E070E080E090E000E20E946B2360
:103EC000282939294A295B2920932102309322028B
:103ED000409323025093240260932502709326029C
:103EE00080932702909328022C7F09F042C025E09E
:103EF00020932102109222022FEF2093230220937D
:103F000024021092250225E030E04FEF5FEF60E0E1
:103F10000E94B70E88E090E00E94CF236B017C01E5
:103F200083E290E00E94C723282F30E040E050E079
:103F300060E070E080E090E00E946B23B22FA32F3E
:103F4000F42FE52F5B0197018601BC29A12BFE29E7
:103F5000E32BB0932102A0932202F0932302E0937B
:103F6000240260932502B092260280932702909348
:103F700028020E945D0710921F020E94D5068091C0
:103F8000210280FF05C060E0869586950E949F15FE
:103F900081E080930B0280E091E090937102809326
:103FA000700278E1C72ED12CE0E19E2EF2E18F2E37
:103FB000A4E0AA2EB12C77247394809186028530D8
:103FC00049F480918602853009F494C00E943F1024
:103FD0000E94BD060E94BE1C9091100280910C02AE
:103FE0009813D7C09091110280910D029813D1C0FF
:103FF0009091120280910E029813CBC00E94711D05
:10400000612C80911F028823D9F180911E02E091DA
:104010002102E695E695E81BE0931A02823009F04A
:10402000F3C0F0E0E751FF4FE4910E2F10E056E1AE
:10403000E52E58E0F52E80911B02882361F0109246
:104040001B020E943315909319028093180210925C
:104050001D0210921C020E943315E0911802F0918B
:1040600019028E1B9F0B8F3F9F4750F4E00FF11FEB
:10407000F0931902E093180288E192E0F7010995A4
:1040800080911602882351F01092160280915602F8
:10409000809357028091540280935502F12C8091B5
:1040A0001502F81608F4E9C090E0809157022091BB
:1040B0005602281709F430C1E82FF0E0E85AFD4F06
:1040C00090818F5F837080935702809155028F5F3C
:1040D0008093550297FD0BC18AEA0E946E138FE30D
:1040E0009CE90197F1F700C000008AEA0AC18BEC55
:1040F00090E098CE80918602843021F10E942E0DAE
:104100001092760230E40FB6F894A895C092600041
:104110000FBE3093600083B7817F846083BF83B715
:10412000816083BF7894889583B78E7F83BF0FB6F5
:10413000F894A89580916000886180936000109247
:1041400060000FBE0E94BE1C80910D0290910C0277
:10415000892B90910E02892B09F433CF809185022F
:10416000882309F42ECF99BC89BC09B400FEFDCF89
:104170008091D8008F7D8093D8008091E00082608C
:104180008093E0008091E00081FDFCCF0E943F1011
:1041900018CF6CE0E62E62E0F62E00E112E0612C12
:1041A000D7015D907D01F80121908F01251419F14F
:1041B000412C332433942524822D8321A1F049827C
:1041C0006A820E9433159C838B837D8291E0852DCA
:1041D000832109F490E09E8349815A816B817C811F
:1041E0008D810E94331C4394330CF3E04F12E4CFD3
:1041F000F80131975082639423E06212D1CF0E947C
:10420000050666246394FDCE863059F4F0E0EA5149
:10421000FF4FE4910E2F10E046E0E42E48E0F42E2C
:104220000ACF893061F4E695F0E0ED51FF4FE4915B
:104230000E2F10E038ECE32E38E0F32EFCCE8F305A
:1042400061F4E695F0E0E052FF4FE4910E2F10E0AC
:1042500027E6E22E28E0F22EEECE04EF11E099E3FD
:10426000E92E98E0F92E8F3109F4E5CE00ED17E044
:1042700082EFE82E85E0F82EDECE61E08F2D0E94E1
:10428000D706182F60E08F2D0E94D706E12FEE0F82
:10429000E82B0F2D10E0D801AC5EBD4F9C91892F0B
:1042A0008370E81711F1990F990FE92BEC93EF70D8
:1042B000F0E0E05AFE4F0D5E1D4F8081D801EC907A
:1042C000E80EEC92B3E060E0BE1524F0EDEFEE16E0
:1042D00024F461E08F2D0E9402078E2DEE0C990BC5
:1042E000B5010E945123D8018C93F394D8CE89EA6A
:1042F0000E946E13EFE3FCE93197F1F700C0000074
:1043000089EA0E94441391E0D0CE0E9405060E94E3
:10431000710D0E94490D06C09111F7CF0E94710DD9
:104320006110F7CF0E94BD0690911702891709F41A
:1043300044CE809317020E9405063FCEEF92FF9273
:104340000F931F93CF93DF93182FEB011092BC00B4
:1043500084EA8093BC000E9433157C018091BC00EC
:1043600087FF27C08091B900887F883029F080912D
:10437000B900887F803189F51093BB0084E8809371
:10438000BC000E9433158C018091BC0087FF1EC0C9
:104390002091B900287F90E080E0283191F081E001
:1043A00090E0203411F490E080E09195819591099E
:1043B00008C0C7010E942415C817D90778F68EEFE8
:1043C0009FEFCDB7DEB7E6E00C943423C8010E941E
:1043D0002415C817D907C0F6F2CF8FEF9FEFF1CFA2
:1043E0001092B9008CE08093B80008950F931F934A
:1043F000CF93DF93EB018093BB0084E88093BC00F4
:104400000E9433158C018091BC0087FF11C0209160
:10441000B900287F81E090E0283211F490E080E03C
:10442000919581959109DF91CF911F910F910895F9
:10443000CF3FDC0741F3C8010E942415C817D907F4
:1044400010F78EEF9FEFEFCFB0E0A0E0EAE2F2E2EC
:104450000C941123782E5B016A0189010E943315A7
:104460004C01C1E0D0E00431110558F0C5E0D0E0C6
:104470000F3F100731F0C80164E170E00E94F8229C
:10448000EB01BE01872D0E949E217C0197FF09C090
:104490000F3F1007B1F3C4010E9424150817190734
:1044A00080F7E501CA0CDB1CCC15DD0511F0F7FE29
:1044B00009C084E98093BC00C701CDB7DEB7EDE049
:1044C0000C942D23B80189910E94F6217C01ECCF38
:1044D000B0E0A0E0EEE6F2E20C941123782E5B014E
:1044E0006A0189010E9433154C01C1E0D0E004311A
:1044F000110558F0C5E0D0E00F3F100731F0C801BA
:1045000064E170E00E94F822EB01BE01872D0E9459
:104510009E217C0197FF09C00F3F1007B1F3C40132
:104520000E9424150817190780F7E501CA0CDB1C47
:10453000CC15DD0511F0F7FE09C084E98093BC00BD
:10454000C701CDB7DEB7EDE00C942D23FE018491B9
:10455000B8010E94F6217C012196EACFB0E0A0E0EC
:10456000E4EBF2E20C941023682E762E5A016901D6
:104570000E9433154C01C1E0D0E00431110558F020
:10458000C5E0D0E00F3F100731F0C80164E170E0F2
:104590000E94F822EB01BE01862D0E949E217C0123
:1045A00097FF1DC00F3F1007B1F3C4010E942415EF
:1045B0000817190780F784E98093BC00C701CDB7BD
:1045C000DEB7EEE00C942C23B80189910E94F6210D
:1045D0007C01CC16DD0679F3F7FEF6CFECCFB801FF
:1045E000872D0E94F6217C01E501CA0CDB1CF1CF6E
:1045F000AA1BBB1B51E107C0AA1FBB1FA617B70709
:1046000010F0A61BB70B881F991F5A95A9F7809524
:104610009095BC01CD0108952F923F924F925F92E9
:104620006F927F928F929F92AF92BF92CF92DF92C2
:10463000EF92FF920F931F93CF93DF93CDB7DEB727
:10464000CA1BDB0B0FB6F894DEBF0FBECDBF0994BB
:104650002A88398848885F846E847D848C849B8412
:10466000AA84B984C884DF80EE80FD800C811B8120
:10467000AA81B981CE0FD11D0FB6F894DEBF0FBE4F
:10468000CDBFED01089587FB082E062687FD819595
:1046900067FD61950E94A1230EF4919507FC819519
:1046A000089597FB072E16F4009407D077FD09D0E4
:1046B0000E94F82207FC05D03EF4909581959F4F0B
:1046C0000895709561957F4F0895EE0FFF1F059037
:1046D000F491E02D0994002E083090F0982F872F48
:1046E000762F652F542F432F322F22270850F4CFD7
:1046F000220F331F441F551F661F771F881F991FE6
:104700000A95B2F7002D089597FD1094002E0830F9
:1047100098F00850232F342F452F562F672F782FCE
:10472000892F912DF4CF1594979587957795679557
:1047300057954795379527950A95AAF71124002D87
:104740000895991B79E004C0991F961708F0961BED
:10475000881F7A95C9F780950895FC014150504013
:1047600030F001900616D1F73197CF0108958827D0
:1047700099270895FB01DC0104C08D9101908019F7
:1047800021F441505040C8F7881B990B0895F999BE
:10479000FECF92BD81BDF89A992780B50895A6E114
:1047A000B0E044E050E00C941124A8E1B0E042E015
:1047B00050E00C941124DC01A40FB51F415050406F
:1047C00048F0CB01840F951F2E910E94EC2341509D
:1047D0005040D0F70895262FF999FECF92BD81BDA4
:1047E000F89A019700B4021639F01FBA20BD0FB62F
:1047F000F894FA9AF99A0FBE08950396272F0E940B
:10480000EC230E94EB23252F0E94EC23242F0C94F1
:10481000EC230196272F0E94EC230C94EB23DC0160
:10482000CB01FC01F999FECF06C0F2BDE1BDF89ABB
:10483000319600B40D9241505040B8F70895F89465
:10484000FFCF44116C110B136C110B139F11C0118E
:104850000B13BD12CA123E16421620163A16461601
:104860004A164E16AA161F17B2167C168016B616D2
:104870008416BA16C616901618179416CA169816E5
:10488000CE16F6169C16D216FD16A216D816E016EF
:104890008816BE168C16C216A616DC16EC1606175F
:1048A00016177616AE1626173C183C18741874188E
:1048B0001C199C189C189C183819C019CF19CF19AD
:1048C000311757175C17611766176B177017751735
:0648D0007A177F17841720
:1048D6001106E70CE00CF305D90C0115161718198B
:1048E6001A1B1C1D1E010021007F2200030000016F
:1048F60000818283E200E900EA00B500B600B70055
:10490600CD008301CC008A01920194012102230289
:1049160024022502260227022A02B300B4006F00F1
:1049260070009F01CB019F02A002F7353697333204
:1049360000FF0100010000FFFF0000010001FF0071
:104946000001020202020606060909090909090F01
:104956000F0F0F0F0F151515151515151515151F15
:084966000008101818100800E9
:00000001FF
