:100000000C9408010C9425010C9425010C942501F5
:100010000C9425010C9425010C9425010C942501C8
:100020000C9425010C9425010C94851A0C94591BF1
:100030000C94B4150C9425010C9425010C94250105
:100040000C9425010C9425010C9425010C94250198
:100050000C9425010C943B160C9425010C9425015D
:100060000C9425010C9425010C9425010C94250178
:100070000C9425010C9425010C9425010C94250168
:100080000C9425010C9425010C9425010C94250158
:100090000C9425010C9425010C9425010C94250148
:1000A0000C9425010C9425010C94250114001A00D0
:1000B000080006000400160007001B00BC00AE008C
:1000C000BB00A800010001000100010001000100C7
:1000D00001000100010001000100007C0803330061
:1000E000780034000000180342006F0061007200C5
:1000F000640073006F00750072006300650000000B
:100100000403090409023B00020100A0FA090400EB
:10011000000103010100092111010001224400072F
:100120000581030800010904010001030000000922
:100130002111010001227B0007058203200001122A
:1001400001000200000008734204030001010200E4
:100150000105010902A10185020901A10005091992
:10016000012908150025019508750181020501097D
:100170003009311581257F950275088106093815EA
:1001800081257F950175088106050C0A38021581C5
:10019000257F950175088106C0C005010980A10170
:1001A000850319012AB700150126B70095017510BE
:1001B0008100C0050C0901A101850419012AA002D2
:1001C000150126A002950175108100C005010906E0
:1001D000A101050719E029E715002501950875011A
:1001E00081029501750881010507190029FF150095
:1001F00026FF0095067508810005081901290515D7
:10020000002501950575019102950175039101C0C5
:1002100011241FBECFEFDAE0DEBFCDBF11E0A0E0BA
:10022000B1E0ECE1FCE302C005900D92AE38B107FD
:10023000D9F722E0AEE8B1E001C01D92A534B207C3
:10024000E1F70E94F50F0C94CD1D0C940000823054
:10025000C0F46330B0F44430A0F4E62FF0E093E053
:10026000899FE00DF11D1124EE0FFF1FEE0FFF1F00
:10027000E40FF11DEE0FFF1FE455FF4F85919491A0
:10028000089581E090E008950E942701089581E09B
:1002900008950E944701089581E008950E94470152
:1002A00008950E944E01089508950E9454010895F2
:1002B000A6E0B0E0EEE5F1E00C94291D49835A83F5
:1002C0009E833091950189819A8131111AC03E81B6
:1002D000332399F0222389F00E94E506182F682F16
:1002E00089819A810E94C20669817A81812F0E9448
:1002F000BC0D2696E3E00C94451D0E94D306182FF2
:10030000F3CF0E94E50669817A81F1CFFC01262FA7
:100310004081518162817381848195810E9458015D
:100320000895CF93DF93EC0161E00E948601BE0146
:100330000E944901DF91CF910895CF93DF93EC01A3
:1003400060E00E948601BE010E945501DF91CF91BD
:10035000089581E008950E94A9010895CF93C82FC0
:100360000E9497058C2F0E94AB012FEF84E39CE045
:10037000215080409040E1F700C00000CF910895E7
:1003800081E00E94AE010E945F16089580E00E9405
:10039000AE010E94701608950F931F93CF93DF93C1
:1003A0008C0161E00E948601EC01B8010E945101BC
:1003B000811106C080E0DF91CF911F910F910895C8
:1003C000B801CE010E941E148823A1F3B801CE010A
:1003D0000E945A10882371F3B801CE010E94301098
:1003E000882341F3F8018581882361F0C330FCE75D
:1003F000DF07E9F058F4C115ECE7DE07A9F0C130DA
:10040000DC47B9F0C8010E944C01D5CFCB358CE751
:10041000D807A9F0CC35ECE7DE0771F0CA35DC4728
:1004200089F70E94FC0AEECF0E94C001C3CF0E9450
:10043000040B0E94C601BECF0E94F20AE3CF0E94C5
:10044000000BE0CF0E9491150E94420208950E9485
:1004500046020E949615089581E008950895CF936D
:10046000DF93D82F0E942C02C82F882319F08D2FDC
:100470000E942E028C2FDF91CF91089508950E9443
:100480002F02089580E00E943F0208950E946714A1
:100490000E943F020895CF930E946714C82F809155
:1004A00090018C1779F0C09390010E942016609300
:1004B00091017093920180939301909394018C2FFA
:1004C0000E943F02CF910895ADE0B0E0EAE6F2E08D
:1004D0000C942A1D488759876A877B878C879D875C
:1004E00091110E94320A1F8286E0FE013896DE01D9
:1004F000119601900D928A95E1F78D8181110DC0C1
:1005000029813A814B815C816D817E818F810E943E
:100510007C092D96E2E00C94461DCE0101960E94C6
:1005200091018111EDCFF5CFFC012481213021F41F
:10053000808191810E9417070895662329F00E9407
:10054000BB110E948E1208950E941512FACFCF930C
:10055000C82F882399F08CEF8C0F813A88F48C2F68
:100560000E94EC14882329F08C2F0E942F150E94E2
:10057000A10A8C2F0E9427150E94A10ACF910895ED
:1005800080E28C0F883048F4C77081E001C0880F8A
:10059000CA95EAF70E94150AEFCFEBE5EC0FE330BE
:1005A00040F4F0E0E55BFE4F808190E00E948D1406
:1005B000E5CFE8E5EC0FEB3150F4F0E0EE0FFF1F74
:1005C000EB5EFE4F808191810E94B214D7CF83E30E
:1005D0008C0F833198F661E08C2F0E949D02CECF64
:1005E000882381F19CEF980F913A28F40E942F15EF
:1005F0000E94A10A089590E2980F983050F48770F5
:1006000091E001C0990F8A95EAF7892F0E941B0A91
:10061000EFCF9BE5980F933028F490E080E00E94A4
:100620008D14089598E5980F9B3128F490E080E0B0
:100630000E94B214089593E3980F933118F460E088
:100640000E949D0208951F93CF93DF93182FEB0113
:100650000E94A702209739F4812F0E94F002DF91B7
:10066000CF911F9108958FE99FE00197F1F700C0A6
:1006700000002197EFCF70E060E0893311F460E56E
:1006800070E00E9423030895882321F00E94150A38
:100690000E94A10A0895882321F00E941B0A0E944B
:1006A000A10A0895B0E0A0E0E8E5F3E00C94231D72
:1006B0006C01D62FC72FFC011581068102950F70A2
:1006C0000E940B0AE82E8823F9F0E12E1123E1F0B5
:1006D0008C2F807F803461F080E28D0F883008F1AC
:1006E0008C2F807E803221F4D230D8F00023C9F0E4
:1006F00080912D0282FF15C082E00E94C60A0E94EE
:100700000B0A91E0E82EE926BC2EB2949FE0B922B4
:10071000FBE0FB15B8F1EB2DF0E0E153F24E0C9449
:10072000141DE12CF1CF0C2F0F70C07F11F002953A
:10073000007F112399F0002359F080E28D0F88305B
:1007400010F0D11107C0802F0E94150A0E94A10A43
:100750008D2F5AC0802F0E94250AF8CF8D2F0E941E
:10076000F002002379F080E28D0F883010F0D11173
:1007700004C0802F0E941B0A03C0802F0E942B0AF6
:100780000E94A10AEB2DE850FF0B349720F40E9441
:1007900067140E943F02EE2089F00E94070A80FD44
:1007A0000DC0F60115820E94010A0E942006C601B2
:1007B0000E945E050E94010A0E943006CDB7DEB796
:1007C000E9E00C943F1D2C2F2F70F22EC07FC03219
:1007D00019F0F29480EFF822DD2341F0D130D1F10D
:1007E000112309F444C00023F1F0B2CF80912D020F
:1007F00082FD15C0112359F0FF2029F08F2D0E9492
:10080000150A0E94A10A80E00E94A702BBCF80E0E7
:100810000E94F002FF2009F4B5CF8F2DABCF11233A
:1008200069F0011104C08F2D0E944403ABCF013049
:1008300009F0A8CF8F2D0E94490AA4CF0111A2CFA1
:100840008F2D0E944B038F2D0E94550A8F2D0E94E1
:10085000390A98CF112321F0063008F093CFE3CF67
:10086000053008F08FCF8F2D0E944B038BCF0023D4
:10087000D1F3D93349F43FEF87EE93E03150804014
:100880009040E1F700C000008D2F0E94F0027ACF67
:100890008C2F86958695837069F0813009F072CF30
:1008A0008D2F9C2F9370111102C080E090E00E9468
:1008B000B21468CF8D2F9C2F9370111102C080E06D
:1008C00090E00E948D145ECF612F8D2F0E949D02BB
:1008D00059CF8C2F8370A1F5111154CF4D2F429514
:1008E00046954770440F440F2D2F2F7030E0042E93
:1008F00002C0220F331F0A94E2F790E080E0D4FF99
:1009000009C08FE090E002C0880F991F4A95E2F776
:1009100080959095C695C695C370822B932BC23057
:1009200049F058F4C13019F00E94F0052BCF0E9415
:10093000E70528CF0E94F90525CF0E94E40522CFC4
:100940008695112311F08C2F8170882309F41ACF1A
:100950004D2F429546954770440F440F2D2F2F7011
:1009600030E0042E02C0220F331F0A94E2F790E019
:1009700080E0D4FF09C08FE090E002C0880F991F8B
:100980004A95E2F780959095C695C695C370822BDF
:10099000932BC23049F058F4C13019F00E945B0625
:1009A000F1CE0E945206EECE0E946406EBCE0E946B
:1009B0000806E8CECF70112329F08C2F0E94200664
:1009C0008D2F32CF8D2F0E944B038C2F0E9430062B
:1009D000D9CED23F41F160F4D03FB9F0D13F81F0A0
:1009E000112309F443C00111B3CE8C2F8F711FC0A6
:1009F000D33F01F1D43FA1F780912D0282FD24C0A5
:100A00008C2F8F71112311F312C0112341F0053087
:100A100008F0B8CE8C2F8F710E944206B3CE0630FC
:100A200008F0B0CEF7CF8C2F8F711111CFCF0E946D
:100A30002006A8CE112329F08C2F8F710E94140656
:100A4000A1CE0E940F069ECE112331F063E08C2FC1
:100A50008F710E94A80A96CE81E00E94C60A0230D9
:100A600008F490CE82E00E94C60A8CCE002359F092
:100A7000D93309F009CFEFEFF7EE23E0E150F04072
:100A80002040E1F7FFCE8C2F8F71A0CF0F931F93E3
:100A9000CF93DF93EC01688179818D810E942207D9
:100AA0008C010E946D060E94E305B801CE010E94F0
:100AB0005203DF91CF911F910F910895CF93DF9350
:100AC000EC018C81882399F0CE010E94CC01811128
:100AD00011C00E940B0A882351F08D81882339F0C0
:100AE00080912D0282FF03C082E00E94C60ADF913E
:100AF000CF910895CE010E944605CE010E949D012E
:100B0000F6CF90E080E00E948D1490E080E00E949B
:100B1000B2140E94320A0E94A10A0E94AA120E94E4
:100B20008E1208950E9437150E94810508950E9433
:100B3000220A0E949205089592959F70963091F036
:100B400058F4925F9F70923058F4803F19F030F45F
:100B5000883E30F481E008959A5FF4CF843FD1F36A
:100B600080E00895883EB0F3813FD1F7F3CFFC01D8
:100B70002481222339F0808191810E9417070E94ED
:100B80009C05089580E00895A6E0B0E0EAECF5E069
:100B90000C942A1D2696E2E00C94461DA7E0B0E0D6
:100BA000E4EDF5E00C942A1D2796E2E00C94461D36
:100BB00008950E94D80508950E94D9059093A10137
:100BC0008093A001089508950E94DC050895209166
:100BD000A0013091A101822B932B0E94DC05089586
:100BE0002091A0013091A101822393230E94DC0572
:100BF00008952091A0013091A101822793270E949E
:100C0000DC0508950E94D80508950E940206089503
:100C10000E94050690939F0180939E01089590E0A5
:100C200080E00E940806089521E030E0A90102C09A
:100C3000440F551F8A95E2F7CA010E9408060895DD
:100C400021E030E002C0220F331F8A95E2F7809145
:100C50009E0190919F01822B932B0E94080608957C
:100C600021E030E002C0220F331F8A95E2F7209581
:100C7000309580919E0190919F01822393230E9441
:100C80000806089521E030E002C0220F331F8A9544
:100C9000E2F780919E0190919F01822793270E9405
:100CA0000806089520919E0130919F01822B932B7D
:100CB0000E940806089520919E0130919F01822391
:100CC00093230E940806089520919E0130919F0170
:100CD000822793270E94080608950895262F2770DB
:100CE00091E001C0990F2A95EAF723E07695679580
:100CF0002A95E1F7660F771F660F771FFA01E60F57
:100D0000F71F50E040E0682F70E08191DF011197FC
:100D10009B01042E02C0369527950A94E2F72170B4
:100D200021952827292328272C934F5F5F4F443094
:100D3000510559F70895A82FA77023E09695879538
:100D40002A95E1F7880F991F880F991FFB01E80F7B
:100D5000F91F50E040E080E0219130E00A2E02C00F
:100D6000369527950A94E2F721703327042E01C0A7
:100D7000220F0A94EAF7822B4F5F5F4F44305105F0
:100D800059F70895262F933068F4843058F434E0EE
:100D9000939FB0011124680F711D46E951E0822F25
:100DA0000E946E060895933070F4843060F444E03D
:100DB000949F9001112466E971E0820F932F911D99
:100DC0000E949B06089580E00895B0E0A0E0EBEE5D
:100DD000F6E00C94231D7C0100919E0110919F016F
:100DE0008091A0019091A101082B192BCFE0D0E0B8
:100DF000CC24C394D12CBC2EC6010C2E02C0880F6B
:100E0000991F0A94E2F780239123892B49F42197B3
:100E100090F7B12C8B2DCDB7DEB7E9E00C943F1DD8
:100E2000B7018C2F0E94C80D019789F3F3CFCF93A0
:100E3000DF93EC010E94E506BE010E94C80DDF9120
:100E4000CF9108951F93CF93DF93EB01909195017C
:100E5000992339F0CB010E941707DF91CF911F91A1
:100E60000895882369F0CB010E94E506182F682FAA
:100E7000CE010E94C206BE01812F0E94C80DEDCF97
:100E8000CB010E94D306182FF6CF1F93CF93DF9389
:100E9000C091A20117E08091A3018C1304C0DF91DF
:100EA000CF911F910895D0E01C9FF0011D9FF00D80
:100EB0001124EC55FE4F20813181428153816481A0
:100EC000758186810E94CE052196C770E4CF20915E
:100ED000DC013091DD014091DE015091DF01609134
:100EE000E0017091E1018091E2010E94CE05089538
:100EF000CF93DF938091E201807F09F04DC0809114
:100F0000E101882309F448C0E091A2015091A301B6
:100F1000C091DD01D091DC016091DE017091DF01B3
:100F200047E05E17C9F18E2F90E0E49FF001112495
:100F3000EC55FE4F2481222391F1489FF001499FF7
:100F4000F00D1124DF01AC55BE4F11962C91119775
:100F50002C1325C02C912D1322C015962C9115977A
:100F600021111DC012962D913C91261B370B283C58
:100F70003105A8F48091E2018F7080618093E201D5
:100F8000E655FE4F80818F70806180838CED91E00B
:100F90000E945E050E944507DF91CF910895FC01F4
:100FA0003196E770BECF482F2091A2019091A30106
:100FB00057E0291302C080E0089530E0529FF0010D
:100FC000539FF00D1124EC55FE4F8181681306C02C
:100FD0008081481303C085818111EECF2F5F3F4F81
:100FE0002770E7CFA4E1B0E0E8EFF7E00C94201D14
:100FF0008C0186E0F801DE011F9601900D928A9522
:10100000E1F7F8018481E5809CEDA92E91E0B92EED
:101010009091E00191111FC08823D1F0EE20A9F03A
:10102000C8010E94B705F82E882379F087E0F801FF
:10103000D50101900D928A95E1F7C5010E949402B5
:101040000E9478070E9467075FC0C8010E945E0582
:10105000FF24F39459C0C080D18082809380F090A7
:10106000E1012091DE013091DF01A401421B530B0D
:10107000FF2009F4F9C0483C510508F0A7C08823B7
:1010800009F442C09091DD018091E201282F207F78
:1010900009F05CC09D1116C09091DC01C91212C00C
:1010A000E1104EC08F7080618093E2010E9467075B
:1010B0008CED91E00E945E058091E201F80186834B
:1010C000F12C22C0E1103CC06D2D8C2D0E94D30765
:1010D0006D2D8C2D0E94D307E82E8111F1CFCF8684
:1010E000D88A8F8598890E941707292F22952F70FB
:1010F000243078F49F702230A8F09923B9F0F801D9
:101100009681907F99F4FE2C8F2D6496ECE00C94E0
:101110003C1D2A5F2F70223068F0C8010E945E05D6
:10112000EF2CF1CF992311F0882369F3805E88308A
:1011300050F3F3CF803F38F3815F833070F7E3CF14
:101140008091E20181608093E201BACF9D1113C0CA
:101150009091DC01C9120FC0E1100DC08683C80157
:101160000E945E0587E0F801ACEDB1E001900D92C0
:101170008A95E1F767CFC8010E94B705882309F473
:1011800064CFEE2009F461CF8091E201803288F0D3
:101190002091DC013091DD01398728879B868A8682
:1011A0009091E0019C871D868E87CE0108960E9453
:1011B0005E0587E0F801ACEDB1E001900D928A95F3
:1011C000E1F70E9478070E94670742CF9091E20101
:1011D000292F207FA1F4682D9A8A898AA6017A890D
:1011E0009E2D0E94C4058CED91E00E945E0587E073
:1011F000F50111928A95E9F70E94670761CF88236C
:1012000009F482CF8091DD018D1110C08091DC0145
:10121000C8120CC0E1100AC09683C8010E945E0586
:1012200087E0F50111928A95E9F76ECFC8010E9417
:10123000B705882309F409CFEE2009F406CF809181
:10124000E201803208F4B5CF2091DC013091DD015C
:101250003A8329839C828B829091E0019D831E8238
:101260008F83CE010196A3CF483C5105B8F5882362
:1012700009F4EECEFE2CEE2009F4E7CE8091DD01DC
:101280008D111EC08091DC01C8121AC08091E2014C
:1012900080FD0DC0982F907F51F08683903F09F418
:1012A0005ECF982F907F905F8F70892B57CF87E00C
:1012B000F801ACEDB1E001900D928A95E1F724CFF1
:1012C000C8010E94B705811174CF8091E20181604D
:1012D0008093E201C8010E945E0516CF682D9A8AAC
:1012E000898AA6017A899E2D0E94C40587E0F501AE
:1012F00011928A95E9F7A6CEAEE0B0E0E2E8F9E017
:101300000C94291D288739874A875B876C877D87DE
:101310008E87CE0108960E94F2078823B1F06C8573
:10132000662341F0288539854A855B857D858E85D4
:101330000E94CE0517E08091A2019091A30189132C
:101340003DC02E96E3E00C94451D87E0FE013896E3
:10135000DE01119601900D928A95E1F78C85882324
:1013600049F32091A30130E0C901019687709927C4
:101370004091A2014817190699F097E0929FD00179
:10138000939FB00D1124AC55BE4FFE0131960190D4
:101390000D929A95E1F78093A3010E944507CACF69
:1013A0000E9497051092A3011092A20187E0ECED34
:1013B000F1E0DF011D928A95E9F7BCCF819FC00162
:1013C00011248C559E4F0E94F207882309F4B9CF4F
:1013D000E091A2011E9FF0011124EC55FE4F2081E7
:1013E0003181428153816481758186810E94CE055D
:1013F0008091A20190E00196877099278093A201C5
:101400009ACF8091EB018695869586950895809177
:10141000EB01877008959091EB01977081E009F4DA
:1014200080E008958091F70108959091F701892B4C
:101430008093F701089580959091F70198239093F8
:10144000F70108951092F70108959091F601892B04
:101450008093F601089580959091F60198239093DA
:10146000F60108951092F601089508950E94350A34
:1014700008959091EC01292F282331F0809589233C
:101480008093EC010E94360A089508950E94450A4F
:1014900008959091ED01292F2823281729F0982BE2
:1014A0009093ED010E94460A08959091ED01292F35
:1014B000282331F0809589238093ED010E94460A0C
:1014C00008958091ED01882329F01092ED0180E0CC
:1014D0000E94460A08950F931F93CF93DF930091C4
:1014E000000110910101C091F7018091F601C82B14
:1014F0008091ED01882331F0C82B0E94D71481110F
:101500000E94610AF801C083C0910001D0910101DD
:1015100048E050E063EE71E0CE010E94651D892B2A
:1015200059F088E0FE01A3EEB1E001900D928A959A
:10153000E1F7CE010E947414DF91CF911F910F91BA
:1015400008950E946B0A089508950E94A40A0895C0
:1015500090912D0292FF11C098E0899F9001112473
:10156000622B6093EB010E9420068091EB0186952F
:10157000869586950E94A50A08950E9420060895E2
:101580001092EB0180E00E94A50A08959091EB0172
:10159000809589238093EB01282F277069F48917A0
:1015A00059F090912D0292FF07C0869586958695F9
:1015B0000E9430060E94C00A089590912D0292FB6D
:1015C000222720F9281769F080FB92F990932D02C9
:1015D00080912C0290912D020E94250B82E00E94A6
:1015E000C60A089580912D0282FB882780F991E038
:1015F00089270E94DD0A089581E00E94DD0A08958E
:1016000080E00E94DD0A08956FEF7FEF90E080E0B8
:101610000E94B71D089590E080E00E94831D21E0A4
:10162000853E9E4F09F020E0822F089582E090E0F1
:101630000E947B1D089583E090E00E947B1D089529
:1016400084E090E00E94831D0895BC0184E090E056
:101650000E94B71D0895AB01BC018FE090E00E948D
:10166000AB1D0895AB01BC0183E190E00E94AB1D6E
:10167000089560E070E0CB010E94320B089560E0B5
:1016800070E0CB010E942B0B0E94390B0895A8E05B
:10169000B0E0EDE4FBE00C942A1D65EE7EEF90E0F7
:1016A00080E00E94B71D60E082E090E00E94991DFA
:1016B00081E090E09093A1018093A00161E083E03C
:1016C00090E00E94991D60E074E184E090E00E9447
:1016D000B71D60E086E090E00E94991D60E087E021
:1016E00090E00E94991D40E050E0BA0188E090E04F
:1016F0000E94AB1D60E083E290E00E94991D60E0D3
:101700008CE090E00E94991D60E08DE090E00E94E6
:10171000991D19821A821B821C821D821E821F82C1
:10172000188648E050E067E170E0CE0101960E9423
:10173000891D40E050E0BA018FE190E00E94AB1DAE
:101740000E943F0B2896E2E00C94461D0E94470B36
:101750000895682F8EE090E00E94991D0895A6E0FC
:10176000B0E0E5EBFBE00C94281D0E9414168C0100
:101770008091F8019091F9018017910781F0198209
:101780001A820E941416682F49815A81792F80E0AD
:1017900090E00E9464021093F9010093F8012696EC
:1017A000E4E00C94441D0E942016609301027093A3
:1017B000020280930302909304026093FD017093F0
:1017C000FE018093FF01909300020895089508950B
:1017D0000E94E60B089508950E94EB0B08958EEB8E
:1017E0009EE00E940A100E94E70B0E94E80B0895F9
:1017F00081E008950E94F80B08950E94F80B089567
:10180000089508950E94000C0E94010C08950E9402
:101810000B0B811102C00E94A60B0E94160B809335
:1018200005020E94200B90932D0280932C020E94AF
:101830002D100E941B0B90E00E94E40580919E01F8
:1018400090919F010E94050608950E940B160E9428
:10185000630F0E94070C0E943E020E94EC0B089549
:10186000A6E0B0E0E6E3FCE00C94211D0E94FA0B38
:1018700081110AC00E94AF0B0E94CC120E944B0241
:101880002696EBE00C943D1D0E94790F1091FA0111
:1018900080E00E94C80E18130EC01091FB0181E079
:1018A0000E94C80E811307C01091FC0182E00E94C3
:1018B000C80E1817F9F28091050281FD0E94CE0E24
:1018C0000E94FD0BC82E8AEFA82E81E0B82E10E0F2
:1018D00099249394812F0E94C80E082FF5018191BD
:1018E0005F01081729F1F12CEE24E394D02ED826BD
:1018F0008D2D8E21A9F0CC2099F0F9821A830E94B7
:1019000014169C838B839D8291E0802F8E2109F495
:1019100090E049815A816B817C818D810E946402B3
:10192000F394EE0CF4E0FF12E3CFF501319700835E
:101930001F5F133079F60E94D30B9ECF1F93CF9376
:10194000DF930E94CD0DEC01C11580E5D807F0F5BD
:10195000C11580E4D80708F09CC0C03ED10520F531
:10196000CD3CD10508F082C0C83AD10578F4C53A1B
:10197000D10508F073C0C130D10519F1209709F1E4
:10198000C430D105F0F4D0E0C0E01BC0C33CD105A9
:10199000D0F7C85AD0E0CC0FDD1FC25BDE4F0990F4
:1019A000D881C02DD4640DC0C11580E2D80708F0DD
:1019B000D1C0C11581E0D80708F05AC0C83ED10592
:1019C00010F7CE01DF91CF911F910895C03682E5C7
:1019D000D80718F5C03482E5D80708F06BC0C032CC
:1019E00082E5D80708F05FC0C11582E5D80708F482
:1019F00097C02C2F2695269580E2289F90011124D0
:101A00008C2F8370C1E0D0E002C0CC0FDD1F8A951F
:101A1000E2F7C22BD32BDD68D4CFC03A82E5D807DA
:101A200060F4C03882E5D80708F459C0CF71D0E01F
:101A3000DC2FCC27C46FD06AC4CFC03C82E5D80766
:101A400008F462C0C03E82E5D80708F09CCFDC2FC6
:101A5000CC27CC27DF71C06FD06AB3CFC55AD0E096
:101A6000CC57DE4FC881D0E0D064ABCFD065A9CFD2
:101A70008D2F0E946F0E182FCE0199270E94CD0D39
:101A8000C12FD0E0DC2FCC27CC27DF71C82BD92B7E
:101A900098CFCE0199270E94CD0DCC27DF70C82B9F
:101AA000D92BD06A8ECFCF71D0E0DC2FCC27C16F7D
:101AB000D06A87CF2C2F26952695277080E2289F05
:101AC000900111248C2F8370C1E0D0E002C0CC0FB4
:101AD000DD1F8A95E2F7C22BD32BDC6872CF2C2F47
:101AE00026952695277080E2289F900111248C2F3F
:101AF0008370C1E0D0E002C0CC0FDD1F8A95E2F711
:101B0000C22BD32BDA685DCF8C2F8F710E946F0EA2
:101B1000C82FD0E0DC2FCC27CC27DF71D06251CF8B
:101B20008C2F8F710E946F0E55E0D695C7955A95F0
:101B3000E1F7CF70D0E0DC2FCC27282F30E084FFF6
:101B400005C044E0220F331F4A95E1F7C22BD32B87
:101B5000D06937CF8D2F8F710E946F0E182FCE0155
:101B600099270E94CD0DC12FD0E0DC2FCC27CC27A8
:101B7000DF71C82BD92BD2CF462F733030F46430AD
:101B800020F4672F0E944401089590E080E00895BA
:101B90000E94BC0D0E949E0C089582389105B9F1F7
:101BA000B0F48133910509F47DC048F48932910580
:101BB00009F46DC08A32910509F47BC0089585331C
:101BC000910509F45FC08933910509F10895833EB9
:101BD0009105D9F138F4803E910529F1823E9105B5
:101BE00079F10895863E9105D9F1873E910509F472
:101BF0003EC0843E910541F520912D0221FF24C075
:101C000080912C0284FD19C087EE90E00895209108
:101C10002C02237009F05AC020912D0223FF14C01A
:101C200089E290E0089520912C0220FD38C0309187
:101C30002D0230FF09C024FF43C090E080E00895EA
:101C400020912C0222FDF7CF089520912C0222FD35
:101C50003AC030912D0230FD39C024FFF5CFEDCFD1
:101C600020912C0223FFF0CF24FDE7CFCDCF209190
:101C70002C0223FD2EC030912D0231FFEECF84EED9
:101C800090E0089520912C0225FFDECFC9CF20914E
:101C90002C0225FD21C020912D0223FFD5CF89E301
:101CA00090E0D2CF20912C0226FFCECF8AE290E0A6
:101CB000089520912C0226FFC7CF81E390E008957C
:101CC00083EE90E0089582EE90E0089580EE90E03B
:101CD000089586EE90E0089585E390E00895909150
:101CE0002C0292FF10C041E0282F2471243009F00B
:101CF00040E031E0282F2871283009F030E0431708
:101D000011F02CE0822793FF10C041E0282F2471AE
:101D1000243109F040E031E0282F2871283109F002
:101D200030E0431711F02CE0822730912D0230FF74
:101D300010C051E0282F2171213009F050E041E01E
:101D4000282F2871283009F040E0541711F029E0BD
:101D5000822731FF10C041E0282F2171213109F085
:101D600040E031E0282F2871283109F030E0431796
:101D700011F029E0822794FD877E089580E0089580
:101D800008950E94C00E089508950E94C40E0895FB
:101D9000E82FF0E0EF5CFD4F80810895089580EA20
:101DA0008A95F1F7089500C008950E94CF0E089516
:101DB000F894E82FE295EF70F0E031A1282F2F7012
:101DC00081E090E001C0880F2A95EAF7982F90955E
:101DD000932391A392A1892B82A37894089587EFEE
:101DE0000E94D80E86EF0E94D80E85EF0E94D80E72
:101DF00086E30E94D80E82E30E94D80E83E30E94FD
:101E0000D80E81E30E94D80E0895B0E0A0E0EBE088
:101E1000FFE00C94241DEC01D62E062F10E0C80123
:101E200085579E4F7C01FC0180818F3F09F444C09F
:101E3000F894E82FE295EF70F0E091A18F7021E027
:101E400030E001C0220F8A95EAF7892F822B81A307
:101E500082A12095282322A378940E94D30EE7E83C
:101E6000F1E031E0C12C21912F3F59F1A22FA29531
:101E7000AF70B0E090968C9190E02F7002C0959575
:101E800087952A95E2F780FD1CC0832FC82A330F5F
:101E900081E0EB38F80739F7F70180818F3F11F0C7
:101EA0000E94D80E61E0C11001C060E08D2D0E943B
:101EB000D50EC00FD11FC882CDB7DEB7E8E00C94B5
:101EC000401D80E0E3CF0E94EF0E83E0E1E3F2E00B
:101ED000DF01982F1D929A95E9F7EEE2F2E0DF011B
:101EE0001D928A95E9F783E00E94B80F0E94C10E07
:101EF0000895A3E0B0E0EFE7FFE00C94291D1982FC
:101F00001A821B8260E0CE0101960E94050F61E0FB
:101F1000CE0101960E94050F62E0CE0101960E945B
:101F2000050F43E050E0BE016F5F7F4F8EE292E00D
:101F30000E94651D21E0009709F420E0892B49F0FB
:101F400089819A81AB8180932E0290932F02A09376
:101F5000300243E061E372E08EE292E00E94B90F4A
:101F6000182F0E94C50E812F2396E3E00C94451D87
:101F70000895B0E0A0E0EFEBFFE00C94241D6C01AD
:101F80007B01042FC22F222379F081E08093080285
:101F90000E941416909307028093060280E0CDB74A
:101FA000DEB7E8E00C94401DD0910802DD23B1F3C8
:101FB00080910602909107020E942C16059770F3FB
:101FC00010E0A801B601C7010E94651D892B31F000
:101FD000A801B601C7010E94721DCD2F1092080200
:101FE0008C2FDDCF0E94300C08950E94AD150E9409
:101FF000BC170E94EF0B0E94D6170E94250C0E946E
:10200000E3170E94E8170E94F20F0E9402180E9434
:10201000020CF7CF90938F0180938E0108950E9458
:10202000040B089580E00E94C80E817008950E94FC
:10203000790F2FEF86E791E0215080409040E1F743
:1020400000C000000E94790F0E941210882321F026
:102050000E940F100E945F1608950E9417100895A5
:10206000CF93DF93EB0186319C4711F50E94120A52
:102070009D81992399F08A7A91E009F490E09093F8
:102080000902811109C089E20E9427150E94A10A54
:1020900080E0DF91CF91089585E3F6CF809109022A
:1020A000811104C089E20E942F15F0CF85E3FBCF98
:1020B00081E0EFCFCF93DF93EC01FB018581882393
:1020C00009F4D2C09E0130572332310508F0B2C066
:1020D0000E94200B90932D0280932C02FE01E15070
:1020E000F047E232F10520F4E552F24E0C94141D53
:1020F00080912C02816080932C0293C080912D02EC
:10210000886080932D028DC080912C028260F3CF75
:1021100080912C028460EFCF80912C028860EBCFFD
:1021200080912D028160EDCF80912D028260E9CFF8
:1021300080912C028061DFCF80912C028062DBCF06
:1021400080912C028064D7CF0E94970580912C0249
:102150008068D1CF80912C028C60CDCF80912D02F0
:102160008360CFCF80912C028E7FC5CF80912D02CE
:10217000877FC7CF80912C028D7FBDCF80912C02AD
:102180008B7FB9CF80912C02877FB5CF80912D02B4
:102190008E7FB7CF80912D028D7FB3CF80912C029F
:1021A0008F7EA9CF80912C028F7DA5CF80912C02AC
:1021B0008F7BA1CF0E94970580912C028F779BCFB8
:1021C00080912C02837F97CF80912D028C7F99CFB5
:1021D00080912C0282FB992790F921E0922790FBB5
:1021E00082F990FB83F987CF80912D02982F9095EB
:1021F00091708E7F892B90FB81F983CF90912C0277
:10220000892F8F7B96FF806476CF0E9497059091EF
:102210002C02892F97FB87F980586DCF81E00E94AF
:10222000A90B80912C0290912D020E94250B0E94F7
:10223000970580E0DF91CF91089580E0F0CF9091F5
:102240002C02892F8F7E94FF806155CF90912C02B4
:10225000892F8E7F90FF81604ECF90912D02892F24
:10226000877F93FF88604DCF81E0E4CF282F35EB47
:102270002303C001112497FF04C080589109892FBE
:10228000089580589F4FFBCF8091100280FF0DC0B2
:102290006091070170E0660F771F6038710570F577
:1022A0006115710569F1862F089581FF07C060915E
:1022B000070184E0689FB0011124EFCF609107010E
:1022C00082FD0AC080910F028823A9F020910601A7
:1022D00060910701821710F088E0ECCF869FC00163
:1022E000112433E0880F991F3A95E1F7622F70E0CF
:1022F0000E94001DD2CF68E070E0D5CF8FE708952F
:1023000081E008958091100280FF0CC0609103016C
:1023100070E075956795759567956115710549F13B
:10232000862F089581FF06C06091030170E07595C6
:102330006795F3CF6091030182FD0BC090910E026F
:102340009923A1F06091020180910301961738F062
:10235000682F70E06038710500F38FE70895899F5A
:10236000C001112470E00E94001DF4CF61E070E014
:10237000D7CF81E008958D3C31F40E9444118195BE
:102380008093140208958E3C19F40E944411F8CFF2
:102390008F3C31F40E94441181958093130208957B
:1023A000803D19F40E944411F8CF893D29F40E9420
:1023B00082118093150208958A3D21F40E948211B2
:1023C0008195F7CF8B3D31F40E94821181958093E6
:1023D000160208958C3D19F40E948211F8CF9FE2F5
:1023E000980F983070F4815D990B21E030E001C0C6
:1023F000220F8A95EAF780911202822B80931202B3
:1024000008958D3D31F48091100281608093100217
:1024100008958E3D21F4809110028260F7CF8F3DA8
:10242000B9F7809110028460F1CF409113028D3C86
:1024300059F48091140287FF0DC0109214024111CB
:102440000BC010920F0208C08E3C81F480911402E0
:1024500018169CF3442381F0809115029091160286
:10246000892B09F05AC010920E0208958F3C49F44E
:1024700047FFF0CF10921302809114028111ECCF2C
:10248000E0CF803D19F41416ACF3E4CF909115021F
:10249000893D29F41916F4F610921502DBCF8A3D16
:1024A00019F497FFD7CFF8CF909116028B3D29F4FE
:1024B00097FFD0CF10921602CDCF8C3D19F419168C
:1024C000CCF3C8CF9FE2980F983090F4815D990BC0
:1024D00021E030E0B90102C0660F771F8A95E2F76C
:1024E000CB01809590911202892380931202B2CF82
:1024F0008D3D31F4809110028E7F80931002AACF1F
:102500008E3D21F4809110028D7FF7CF8F3D09F031
:10251000A1CF809110028B7FF0CF08950E941416F6
:102520009C019091130280911402982B21F030931A
:102530000D0220930C029091150280911602982BA7
:1025400021F030930B0220930A0281E192E00E9475
:102550007F14089586E0E1E1F2E0DF011D928A95A3
:10256000E9F710920F0210920E02109210020895D5
:10257000FC01828181110EC0838181110BC0848195
:10258000811108C091E08581811101C090E0892FFF
:102590008170089581E0FCCFA6E0B0E0E2EDF2E1C9
:1025A0000C94291D86E0E1E1F2E0DE011196019034
:1025B0000D928A95E1F71092130210921402109274
:1025C0001502109216028B819C81892B89F08091D3
:1025D0000C0290910D020E942C16AC0190910F02FA
:1025E0009923C9F1809108018417150608F440C0A9
:1025F0008D819E81892B91F080910A0290910B022E
:102600000E942C16AC0190910E02992309F46AC025
:10261000809104018417150608F472C0BE016F5F33
:102620007F4F81E192E00E944215811105C081E156
:1026300092E00E94B81281110E948E1286E0FE0183
:102640003196A1E1B2E001900D928A95E1F72696CC
:10265000E3E00C94451D209109018AE0289F900138
:1026600011242417350720F69F5F90930F0202C0B4
:102670009F3FD1F71B81112359F00E9444119FEF16
:1026800011160CF491E0899F802D11248093130280
:102690001C81112359F00E9444119FEF11160CF474
:1026A00091E0899F802D1124809314028091130260
:1026B000882309F49DCF10911402112309F498CFB7
:1026C0000E943611882351F080931302812F0E94BB
:1026D0003611882329F0809314028ACF81E0F4CF49
:1026E00081E0F9CF209105018AE0289F9001112413
:1026F0002417350708F092CF9F5F90930E0202C017
:102700009F3FD1F71D81112359F00E9482119FEF45
:1027100011160CF491E0899F802D112480931502ED
:102720001E81112359F00E9482119FEF11160CF4A3
:1027300091E0899F802D11248093160280911502CB
:10274000882309F46BCF10911602112309F466CF88
:102750000E943611882351F080931502812F0E9428
:102760003611882329F08093160258CF81E0F4CFE8
:1027700081E0F9CF0F931F93CF93DF93C42FD22F14
:10278000FC0185818823C9F0409319020E94141628
:10279000909318028093170280E28C0F883040F4E7
:1027A000C77081E001C0880FCA95EAF70E94440310
:1027B000DF91CF911F910F91089510911902141379
:1027C00032C080911702909118020E942C16883C0A
:1027D000910548F5C0E2CD0F1D17B9F080E2810FD9
:1027E000883040F4177081E001C0880F1A95EAF72D
:1027F0000E944B03C83048F481E09D2F977001C0C0
:10280000880F9A95EAF70E944403802F0E943B03A9
:10281000C83070F6D77081E001C0880FDA95EAF70A
:102820000E944B03C5CF80E28C0F883008F6C7703A
:1028300081E001C0880FCA95EAF7F2CF0F93DB0160
:1028400088519C4787309105A0F5FC01E350F24E7A
:102850000C94141D06E221EE41EE6AE17CE7CD0105
:102860000E94BA1380E00F91089507E225EE45EE2D
:102870006BE17CE7F4CF06E221EE40EE68E17CE715
:10288000EECF07E225EE44EE69E17CE7E8CF06E211
:1028900021EE42EE6CE17CE7E2CF07E225EE46EE68
:1028A0006DE17CE7DCCF08E221E045EE6EE17CE7FC
:1028B000D6CF15968C91882319F010921902D3CF98
:1028C00081E0D1CF90931F0280931E020895E09182
:1028D0001E02F0911F02309729F00190F081E02D47
:1028E0000995089580E00895E0911E02F0911F027D
:1028F000309721F00280F381E02D09950895E09151
:102900001E02F0911F02309739F022E0DC012C9377
:102910000680F781E02D09950895A3E0B0E0E3E992
:10292000F4E10C942A1D20911C0230911D022817FD
:102930003907A1F090931D0280931C02E0911E02C2
:10294000F0911F02309751F023E029839B838A8303
:102950000084F185E02DCE01019609952396E2E0F1
:102960000C94461DA3E0B0E0E8EBF4E10C942A1DC2
:1029700020911A0230911B0228173907A1F0909379
:102980001B0280931A02E0911E02F0911F02309701
:1029900051F024E029839B838A830084F185E02D14
:1029A000CE01019609952396E2E00C94461D4091D4
:1029B0000001509101019A012E5F3F4F485F5F4F28
:1029C00080E02417350709F40895F90191919F01DA
:1029D0009923B9F38F5FF5CF882371F0209100011F
:1029E00030910101F9013296285F3F4F919198177C
:1029F00029F0E217F307D1F780E0089581E0089508
:102A00009C01FC0132969FEF80E04191461751F006
:102A10009F3F19F4411101C0982F8F5F8630A9F7AD
:102A20009F3F09F40895290F311D97FD3A95F9014B
:102A300062830895FC01329608962191261303C003
:102A4000DF0111971C92E817F907B9F70895682F6D
:102A500080910001909101010E9400150895682F56
:102A600080910001909101010E941A150895E09152
:102A70000001F0910101329686E0DF011D928A95F6
:102A8000E9F70895DC01FB0111969C911197818172
:102A9000981322C012968C911297882319F0928174
:102AA00089131AC013968C911397882319F0938178
:102AB000891312C015968C911597882319F095816A
:102AC00089130AC014969C91992321F081E02481F6
:102AD000291303C080E001C081E08170089508954A
:102AE0000E946F150895811106C081E08093200235
:102AF0000E947015089582E0F9CF83E08093200250
:102B00000E94701508950E947315089581E08093C6
:102B100020020E94701508950E9486150895089558
:102B200008950E9490150895089508950E948F15A4
:102B30000895CF930E9494150E94790F0E949515D5
:102B4000C0E08C2F0E94C80E811105C0CF5FC3303A
:102B5000C1F7CF91089581E0FCCF85B7806885BF2C
:102B600085B7806885BF08951F921FB61F921124F4
:102B70008F939F93AF93BF9380912102811113C0D4
:102B80008091340290913502A0913602B0913702C3
:102B90004196A11DB11D8093340290933502A093FC
:102BA0003602B0933702BF91AF919F918F911F90E2
:102BB0001FBE1F90189580913C02843031F10E9415
:102BC00022021092210288E190E020E40FB6F894EE
:102BD000A895809360000FBE2093600083B7817F2B
:102BE000846083BF83B7816083BF7894889583B7FF
:102BF0008E7F83BF0FB6F894A8958091600088619E
:102C000080936000109260000FBE08950E949705A7
:102C10000E942702089582E084BD93E095BD9AEF5B
:102C200097BD80936E0008952FB7F8948091340279
:102C300090913502A0913602B09137022FBF0895CE
:102C40002FB7F8946091340270913502809136026A
:102C5000909137022FBF08959C014FB7F89480914F
:102C6000340290913502A0913602B09137024FBFE5
:102C7000821B930B089578941F921FB61F92112404
:102C80008F939F93AF93BF938091340290913502BD
:102C9000A0913602B09137020196A11DB11D80931B
:102CA000340290933502A0933602B0933702BF915D
:102CB000AF919F918F911F901FBE1F90189587E72E
:102CC00097E7909301088093000888E19AE00FB697
:102CD000F894A895809360000FBE90936000FFCF9A
:102CE00088E19AE00FB6F894A895809360000FBE33
:102CF00090936000FFCF80912A02089508959B0170
:102D0000BA0190913C029430E9F48F708093E9000D
:102D10009FEF8091E800915085FD06C085ED8A9572
:102D2000F1F700009111F5CF8091E80085FF0AC00E
:102D300050E040E0C9010E9479188091E8008E7748
:102D40008093E800089543E050E0BC0182E00E94D7
:102D50007F16089546E050E0BC0182E00E947F1695
:102D60000895CF93DF93EC0148E050E0BC0181E08F
:102D70000E947F1688E0FE01A2E2B2E001900D926F
:102D80008A95E1F7DF91CF91089580913B028111FF
:102D900009C00E94091A0E94661A8091E2008460AC
:102DA0008093E200089510923B0208950E948615D8
:102DB00008956091380281E0611101C080E00E94B5
:102DC0007D15089590913C0281E0943009F080E0F7
:102DD000609138020E948315089542E061EC81E021
:102DE0000E94851942E261EC82E00E94851990916F
:102DF0003C0281E0943009F080E0609138020E944A
:102E00007315089580913E02833009F461C030F457
:102E10008130D1F1823009F49EC008958A3009F4DE
:102E20008AC08B3009F46FC0893009F050C080919E
:102E30003D02813209F04BC08091410290914202E3
:102E4000029708F044C08091E800877F8093E800F3
:102E50008091E80082FF37C09091F3008091F200EA
:102E6000029731F48091F100813011F0863021F425
:102E70008091F10080932A028091E8008B77809303
:102E8000E8000E94B91923C080913D02813AF9F40B
:102E90008091E800877F8093E800809141029091C3
:102EA0004202892B61F468E082E292E070E00E94C5
:102EB000C8188091E8008B778093E800089560E05F
:102EC00090E080E0F3CF80913C028111C1CF089562
:102ED00080913D02813AD9F780914102909142025E
:102EE000892BA9F78091E800877F8093E800809183
:102EF000E80080FFFCCF809114018093F100809165
:102F0000E8008E77BCCF80913D02813201F780913D
:102F1000410290914202892BD1F68091E800877F8F
:102F20008093E8000E94B91980913F0280931401B8
:102F30000E949705089580913D02813241F680916B
:102F4000E800877F8093E8000E94B91980914002D1
:102F500080932B02089580913D02813A09F0B7CF0A
:102F60008091E800877F8093E8008091E80080FFEF
:102F7000FCCF80912B02C1CF84B7877F84BF0FB66F
:102F8000F894A89580916000886180936000109209
:102F900060000FBE80E890E00FB6F8948093610067
:102FA000909361000FBE0E948C1508950E94091A2B
:102FB0000E94661AE2EEF0E080818460808378945B
:102FC0000E94E51C08958AE091E00E946214089531
:102FD00080913C02853031F480913C02853019F0BB
:102FE0000E94061608950E94DB150E9499158823F9
:102FF00099F380913A02882379F30E9463180E9422
:103000009705EACF08959A014091430250914402F6
:103010000E940B180895492F55274330510519F187
:1030200068F44130510509F444C04230510509F4B7
:1030300045C090E080E050E040E025C041325105BD
:1030400049F142325105A9F784E490E04CEC51E09B
:1030500061157105C1F08BE790E041E551E0613009
:10306000710589F0E6CF99278130910581F00097AD
:1030700029F00297F1F6ECEDF0E002C0E0E0F1E0BB
:10308000849190E0AF01F901518340830895E6EE09
:10309000F0E0F6CF89E090E046E151E0611571057E
:1030A00091F389E090E04FE251E06130710559F30E
:1030B000C0CF82E190E04FE351E0E5CF8BE390E0B9
:1030C00044E051E0E0CF80E189BD82E189BD09B4EF
:1030D00000FEFDCF8091D8008F7D8093D800809135
:1030E000E00082608093E0008091E00081FDFCCFF1
:1030F0000895AF92BF92CF92DF92FF920F931F93EA
:10310000CF93DF936C01EB018A010E94D819F82E4E
:10311000811123C00115110539F0F80180819181D9
:10312000C81BD90BC80ED91EB12CA12C2097A9F011
:103130008091E80085FD22C08091E8008E77809321
:10314000E80001151105A1F0F80180819181A80E18
:10315000B91EB182A08285E0F82E8F2DDF91CF912C
:103160001F910F91FF90DF90CF90BF90AF90089587
:103170000E94D8198823D1F2F82EEFCFF601819161
:103180006F018093F1002197FFEFAF1ABF0ACECFF6
:10319000FC01809143029091440286179707A0F0AA
:1031A0006115710529F49091E8009E779093E800ED
:1031B00090E06115710551F4911108C08091E8000B
:1031C00082FF34C080E00895BC01F2CF80913C02C0
:1031D0008823C1F18530C1F18091E80083FD30C0C2
:1031E0008091E80082FDEACF8091E80080FFE1CF86
:1031F0008091F3002091F200382F6115710519F0CC
:103200002830310558F091E02830310509F090E080
:103210002091E8002E772093E800CBCF8191809316
:10322000F100615071092F5F3F4FE7CF80913C0261
:10323000882341F0853041F08091E80083FFBECFC4
:1032400081E0089582E0089583E00895FC01809173
:1032500043029091440286179707A0F0611571050B
:1032600029F48091E8008E778093E80090E0611562
:10327000710551F4911108C08091E80082FF35C0BA
:1032800080E00895BC01F2CF80913C028823C9F10F
:103290008530C9F18091E80083FD31C08091E8005C
:1032A00082FDEACF8091E80080FFE1CF8091F300BA
:1032B0002091F200382F6115710519F02830310581
:1032C00058F091E02830310509F090E08091E80055
:1032D0008E778093E800CBCF84918093F100319674
:1032E000615071092F5F3F4FE6CF80913C028823E8
:1032F00041F0853041F08091E80083FFBDCF81E04F
:10330000089582E0089583E00895982F973028F07B
:103310008F708093E90081E008959093E900242F55
:10332000762F50E0981731F07091EC002091ED006D
:103330005091F00021FD02C09F5FE8CF3091EB007B
:103340003E7F3093EB003091ED003D7F3093ED00F8
:103350003091EB0031603093EB007093EC002093E0
:10336000ED005093F0002091EE0027FDE5CF80E0C6
:10337000089580913D0287FF13C08091E80082FF8D
:1033800006C08091E8008B778093E80004C08091AC
:103390003C028111F2CF089580913C028823D9F339
:1033A0008091E80080FFF8CF8091E8008E77ECCF25
:1033B0002091E4003091E50095E6A9012091EC0010
:1033C000822F817020FF06C08091E80080FF06C038
:1033D00080E008952091E80022FD1AC080913C020F
:1033E000882389F0853089F08091EB0085FD0FC03E
:1033F0002091E4003091E50042175307F9F2915013
:10340000E1F684E0089582E0089583E0089581E084
:1034100008950E94781A0E94801AE0EEF0E0808100
:1034200081608083E8EDF0E080818F77808319BC34
:10343000A7EDB0E08C918E7F8C9380818F7E80830E
:1034400010923B0208950F931F93CF93DF930E9436
:10345000781A0E94801AC8EDD0E088818F7788831F
:1034600088818068888388818F7D888319BC1092C9
:103470003C021092380210923A021092390200EE89
:1034800010E0F80180818B7F808388818160888350
:1034900042E060E080E00E948519E1EEF0E080818A
:1034A0008E7F8083E2EEF0E0808181608083808186
:1034B00088608083F80180818E7F8083888180612D
:1034C0008883DF91CF911F910F910895E8EDF0E08F
:1034D00080818F7E8083E7EDF0E080818160808352
:1034E00084E082BF81E080933B020E94231A08950A
:1034F000E8EDF0E080818E7F80831092E2000895F5
:103500001092DA001092E10008951F920F920FB608
:103510000F9211242F933F934F935F936F937F9359
:103520008F939F93AF93BF93EF93FF938091E100AD
:1035300082FF0BC08091E20082FF07C08091E10012
:103540008B7F8093E1000E94E41C8091DA0080FF71
:1035500019C08091D80080FF15C08091DA008E7F5D
:103560008093DA008091D90080FF96C080E189BD08
:1035700082E189BD09B400FEFDCF81E080933C0269
:103580000E94C5168091E10080FF19C08091E20081
:1035900080FF15C08091E2008E7F8093E2008091D1
:1035A000E20080618093E2008091D8008062809385
:1035B000D80019BC85E080933C020E94D916809106
:1035C000E10084FF2BC08091E20084FF27C080E1EE
:1035D00089BD82E189BD89B5982F917080FFFBCFAD
:1035E0008091D8008F7D8093D8008091E1008F7EFC
:1035F0008093E1008091E2008F7E8093E2008091D1
:10360000E20081608093E20080913802882309F40F
:1036100049C084E080933C020E94E2168091E10060
:1036200083FF29C08091E20083FF25C08091E100E3
:10363000877F8093E10082E080933C021092380201
:103640008091E1008E7F8093E1008091E2008E7F87
:103650008093E2008091E20080618093E20042E08A
:1036600060E080E00E9485198091F000886080937E
:10367000F0000E94D616FF91EF91BF91AF919F91FC
:103680008F917F916F915F914F913F912F910F900B
:103690000FBE0F901F90189519BC10923C020E940B
:1036A000D31670CF8091E30087FD93E090933C02A6
:1036B000B3CF1F920F920FB60F9211242F933F9307
:1036C0004F935F936F937F938F939F93AF93BF932A
:1036D000CF93DF93EF93FF93D091E900DF70809158
:1036E000EC00C82FC17080FDC0E81092E900809105
:1036F000F000877F8093F00078940E949D1B1092C9
:10370000E9008091F00088608093F000CD2BCF70AD
:10371000C093E900FF91EF91DF91CF91BF91AF91FD
:103720009F918F917F916F915F914F913F912F91D9
:103730000F900FBE0F901F901895AAE2B0E0E3EA39
:10374000FBE10C94291D8DE392E02091F100FC0136
:103750002193CF01F2E085349F07B9F70E94021749
:103760008091E80083FF1EC180913D0290913E024E
:103770009A3008F017C1E92FF0E0EC5FF14E0C949D
:10378000141D803899F0823809F00CC180914102F3
:103790008F70873008F006C18093E9008091EB00BC
:1037A00085FB882780F91092E90006C080913902D4
:1037B00090913A02911182609091E800977F9093E6
:1037C000E8008093F1001092F1008091E8008E777C
:1037D000E5C0882309F4D3C0823009F0E3C08091AA
:1037E0003F028111D6C0809141028F702FEF280FC8
:1037F000263008F0D7C08093E9002091EB0020FF2D
:10380000C8C0933031F48091EB0080628093EB006C
:10381000C0C09091EB0090619093EB0021E030E00C
:1038200001C0220F8A95EAF72093EA001092EA007D
:103830008091EB008860EACF8111B4C010913F0203
:103840001F778091E3008078812B8093E300809143
:10385000E800877F8093E8000E94B9198091E80012
:1038600080FFFCCF8091E30080688093E30082E0DA
:10387000111183E080933C0295C08058823008F09B
:1038800091C080913F02909140028C3D23E09207CD
:10389000A1F583E08A838AE289834FB7F894DE0139
:1038A000139620E03EE051E2E32FF0E05093570002
:1038B000E49120FF03C0E295EF703F5FEF708E2F21
:1038C00090E0EA30C0F0C7968D939D932F5F24312E
:1038D00059F74FBF8091E800877F8093E8006AE244
:1038E00070E0CE0101960E94C8188091E8008B77A5
:1038F0008093E80057C0C096E7CF60914102709175
:103900004202AE014F5F5F4F0E940318BC01892B3A
:1039100009F448C09091E800977F9093E80089816E
:103920009A810E942619E1CF8038E1F58091E80064
:10393000877F8093E800809138028093F10045CF23
:10394000811130C090913F02923060F58091E80083
:10395000877F8093E800909338020E94B919809184
:103960003802882311F084E005C08091E30087FDD0
:10397000FACF81E080933C020E94ED1613C0809143
:103980003F02813079F481E0933009F080E0809348
:103990003A021092E9008091E800877F8093E80066
:1039A0000E94B9198091E80083FF0AC08091E80065
:1039B000877F8093E8008091EB0080628093EB002A
:1039C000AA96E3E00C94451D0895CF9380913C02A4
:1039D0008823A1F0C091E900CF709091EC00892F6D
:1039E000817090FD80E8C82B1092E9008091E8007A
:1039F00083FD0E949D1BCF70C093E900CF91089575
:103A000097FB072E16F4009407D077FD09D00E948B
:103A1000511D07FC05D03EF4909581959F4F089568
:103A2000709561957F4F0895EE0FFF1F0590F491FB
:103A3000E02D09942F923F924F925F926F927F9266
:103A40008F929F92AF92BF92CF92DF92EF92FF92AE
:103A50000F931F93CF93DF93CDB7DEB7CA1BDB0B5A
:103A60000FB6F894DEBF0FBECDBF09942A883988FF
:103A700048885F846E847D848C849B84AA84B98406
:103A8000C884DF80EE80FD800C811B81AA81B98112
:103A9000CE0FD11D0FB6F894DEBF0FBECDBFED0126
:103AA0000895AA1BBB1B51E107C0AA1FBB1FA61785
:103AB000B70710F0A61BB70B881F991F5A95A9F7D7
:103AC00080959095BC01CD010895FB01DC0104C0F7
:103AD0008D910190801921F441505040C8F7881B06
:103AE000990B0895FB01DC0102C001900D92415039
:103AF0005040D8F70895F999FECF92BD81BDF89A4C
:103B0000992780B50895A8E1B0E042E050E00C9418
:103B1000BF1DDC01A40FB51F4150504048F0CB0140
:103B2000840F951F2E910E949A1D41505040D0F74E
:103B30000895262FF999FECF92BD81BDF89A01977D
:103B400000B4021639F01FBA20BD0FB6F894FA9AE5
:103B5000F99A0FBE08950396272F0E949A1D0E947E
:103B6000991D252F0E949A1D242F0C949A1D0196B1
:103B7000272F0E949A1D0C94991DDC01CB01FC019A
:103B8000F999FECF06C0F2BDE1BDF89A319600B4B6
:103B90000D9241505040B8F70895F894FFCF930329
:103BA0009303E303E30348046404C203C203690408
:103BB000DA04E904E904B2102611BA10841088105E
:103BC000BE108C10C210CE1098101F119C10D21075
:103BD000A010D610FE10A410DA100511AA10E010E3
:103BE000E8109010C6109410CA10AE10E410F41033
:103BF0000E111D117E10B6102D113B1441142A1404
:103C0000351447144D145314C11BE91BD21CE91B76
:0C3C1000D21C1C1C3D1CD21C941CA01CCF
:103C1C00EE01280850011E0A14017B16B1167E16FF
:103C2C00AA16A31601E200E900EA00B500B600B737
:103C3C0000CD008301CC008A019201940121022362
:103C4C000224022502260227022A02B300B4006FC6
:103C5C000070009F01CB019F02A002818283E200D1
:103C6C00E900EA00B500B600B700CD008301CC0036
:103C7C008A019201940121022302240225022602C8
:103C8C0027022A02B300B4006F0070009F01CB0121
:0E3C9C009F02A00281828336323331F7F6F5A3
:00000001FF
